{
  "_format": "hh-sol-artifact-1",
  "contractName": "BiP",
  "sourceName": "contracts/PortfolioNFT.sol",
  "abi": [
    {
      "inputs": [
        {
          "internalType": "address",
          "name": "initialOwner",
          "type": "address"
        }
      ],
      "stateMutability": "payable",
      "type": "constructor"
    },
    {
      "inputs": [
        {
          "internalType": "address",
          "name": "sender",
          "type": "address"
        },
        {
          "internalType": "uint256",
          "name": "tokenId",
          "type": "uint256"
        },
        {
          "internalType": "address",
          "name": "owner",
          "type": "address"
        }
      ],
      "name": "ERC721IncorrectOwner",
      "type": "error"
    },
    {
      "inputs": [
        {
          "internalType": "address",
          "name": "operator",
          "type": "address"
        },
        {
          "internalType": "uint256",
          "name": "tokenId",
          "type": "uint256"
        }
      ],
      "name": "ERC721InsufficientApproval",
      "type": "error"
    },
    {
      "inputs": [
        {
          "internalType": "address",
          "name": "approver",
          "type": "address"
        }
      ],
      "name": "ERC721InvalidApprover",
      "type": "error"
    },
    {
      "inputs": [
        {
          "internalType": "address",
          "name": "operator",
          "type": "address"
        }
      ],
      "name": "ERC721InvalidOperator",
      "type": "error"
    },
    {
      "inputs": [
        {
          "internalType": "address",
          "name": "owner",
          "type": "address"
        }
      ],
      "name": "ERC721InvalidOwner",
      "type": "error"
    },
    {
      "inputs": [
        {
          "internalType": "address",
          "name": "receiver",
          "type": "address"
        }
      ],
      "name": "ERC721InvalidReceiver",
      "type": "error"
    },
    {
      "inputs": [
        {
          "internalType": "address",
          "name": "sender",
          "type": "address"
        }
      ],
      "name": "ERC721InvalidSender",
      "type": "error"
    },
    {
      "inputs": [
        {
          "internalType": "uint256",
          "name": "tokenId",
          "type": "uint256"
        }
      ],
      "name": "ERC721NonexistentToken",
      "type": "error"
    },
    {
      "inputs": [],
      "name": "EnforcedPause",
      "type": "error"
    },
    {
      "inputs": [],
      "name": "ExpectedPause",
      "type": "error"
    },
    {
      "inputs": [
        {
          "internalType": "address",
          "name": "owner",
          "type": "address"
        }
      ],
      "name": "OwnableInvalidOwner",
      "type": "error"
    },
    {
      "inputs": [
        {
          "internalType": "address",
          "name": "account",
          "type": "address"
        }
      ],
      "name": "OwnableUnauthorizedAccount",
      "type": "error"
    },
    {
      "anonymous": false,
      "inputs": [
        {
          "indexed": true,
          "internalType": "address",
          "name": "owner",
          "type": "address"
        },
        {
          "indexed": true,
          "internalType": "address",
          "name": "approved",
          "type": "address"
        },
        {
          "indexed": true,
          "internalType": "uint256",
          "name": "tokenId",
          "type": "uint256"
        }
      ],
      "name": "Approval",
      "type": "event"
    },
    {
      "anonymous": false,
      "inputs": [
        {
          "indexed": true,
          "internalType": "address",
          "name": "owner",
          "type": "address"
        },
        {
          "indexed": true,
          "internalType": "address",
          "name": "operator",
          "type": "address"
        },
        {
          "indexed": false,
          "internalType": "bool",
          "name": "approved",
          "type": "bool"
        }
      ],
      "name": "ApprovalForAll",
      "type": "event"
    },
    {
      "anonymous": false,
      "inputs": [
        {
          "indexed": false,
          "internalType": "uint256",
          "name": "_fromTokenId",
          "type": "uint256"
        },
        {
          "indexed": false,
          "internalType": "uint256",
          "name": "_toTokenId",
          "type": "uint256"
        }
      ],
      "name": "BatchMetadataUpdate",
      "type": "event"
    },
    {
      "anonymous": false,
      "inputs": [
        {
          "indexed": false,
          "internalType": "uint256",
          "name": "_tokenId",
          "type": "uint256"
        }
      ],
      "name": "MetadataUpdate",
      "type": "event"
    },
    {
      "anonymous": false,
      "inputs": [
        {
          "indexed": true,
          "internalType": "address",
          "name": "previousOwner",
          "type": "address"
        },
        {
          "indexed": true,
          "internalType": "address",
          "name": "newOwner",
          "type": "address"
        }
      ],
      "name": "OwnershipTransferred",
      "type": "event"
    },
    {
      "anonymous": false,
      "inputs": [
        {
          "indexed": false,
          "internalType": "address",
          "name": "account",
          "type": "address"
        }
      ],
      "name": "Paused",
      "type": "event"
    },
    {
      "anonymous": false,
      "inputs": [
        {
          "indexed": true,
          "internalType": "address",
          "name": "from",
          "type": "address"
        },
        {
          "indexed": true,
          "internalType": "address",
          "name": "to",
          "type": "address"
        },
        {
          "indexed": true,
          "internalType": "uint256",
          "name": "tokenId",
          "type": "uint256"
        }
      ],
      "name": "Transfer",
      "type": "event"
    },
    {
      "anonymous": false,
      "inputs": [
        {
          "indexed": false,
          "internalType": "address",
          "name": "account",
          "type": "address"
        }
      ],
      "name": "Unpaused",
      "type": "event"
    },
    {
      "inputs": [
        {
          "internalType": "address",
          "name": "to",
          "type": "address"
        },
        {
          "internalType": "uint256",
          "name": "tokenId",
          "type": "uint256"
        }
      ],
      "name": "approve",
      "outputs": [],
      "stateMutability": "nonpayable",
      "type": "function"
    },
    {
      "inputs": [
        {
          "internalType": "address",
          "name": "owner",
          "type": "address"
        }
      ],
      "name": "balanceOf",
      "outputs": [
        {
          "internalType": "uint256",
          "name": "",
          "type": "uint256"
        }
      ],
      "stateMutability": "view",
      "type": "function"
    },
    {
      "inputs": [],
      "name": "baseTokenUriString",
      "outputs": [
        {
          "internalType": "string",
          "name": "",
          "type": "string"
        }
      ],
      "stateMutability": "view",
      "type": "function"
    },
    {
      "inputs": [],
      "name": "contractURI",
      "outputs": [
        {
          "internalType": "string",
          "name": "",
          "type": "string"
        }
      ],
      "stateMutability": "pure",
      "type": "function"
    },
    {
      "inputs": [
        {
          "internalType": "uint256",
          "name": "tokenId",
          "type": "uint256"
        }
      ],
      "name": "getApproved",
      "outputs": [
        {
          "internalType": "address",
          "name": "",
          "type": "address"
        }
      ],
      "stateMutability": "view",
      "type": "function"
    },
    {
      "inputs": [],
      "name": "getBaseURI",
      "outputs": [
        {
          "internalType": "string",
          "name": "",
          "type": "string"
        }
      ],
      "stateMutability": "view",
      "type": "function"
    },
    {
      "inputs": [],
      "name": "getTotalSupply",
      "outputs": [
        {
          "internalType": "uint256",
          "name": "",
          "type": "uint256"
        }
      ],
      "stateMutability": "view",
      "type": "function"
    },
    {
      "inputs": [
        {
          "internalType": "address",
          "name": "wallet",
          "type": "address"
        }
      ],
      "name": "getWalletMints",
      "outputs": [
        {
          "internalType": "uint256",
          "name": "",
          "type": "uint256"
        }
      ],
      "stateMutability": "view",
      "type": "function"
    },
    {
      "inputs": [
        {
          "internalType": "address",
          "name": "wallet",
          "type": "address"
        }
      ],
      "name": "getWalletTokenIDs",
      "outputs": [
        {
          "internalType": "uint256[]",
          "name": "",
          "type": "uint256[]"
        }
      ],
      "stateMutability": "view",
      "type": "function"
    },
    {
      "inputs": [
        {
          "internalType": "address",
          "name": "owner",
          "type": "address"
        },
        {
          "internalType": "address",
          "name": "operator",
          "type": "address"
        }
      ],
      "name": "isApprovedForAll",
      "outputs": [
        {
          "internalType": "bool",
          "name": "",
          "type": "bool"
        }
      ],
      "stateMutability": "view",
      "type": "function"
    },
    {
      "inputs": [],
      "name": "maxPerWallet",
      "outputs": [
        {
          "internalType": "uint256",
          "name": "",
          "type": "uint256"
        }
      ],
      "stateMutability": "view",
      "type": "function"
    },
    {
      "inputs": [],
      "name": "maxSupply",
      "outputs": [
        {
          "internalType": "uint256",
          "name": "",
          "type": "uint256"
        }
      ],
      "stateMutability": "view",
      "type": "function"
    },
    {
      "inputs": [],
      "name": "name",
      "outputs": [
        {
          "internalType": "string",
          "name": "",
          "type": "string"
        }
      ],
      "stateMutability": "view",
      "type": "function"
    },
    {
      "inputs": [],
      "name": "owner",
      "outputs": [
        {
          "internalType": "address",
          "name": "",
          "type": "address"
        }
      ],
      "stateMutability": "view",
      "type": "function"
    },
    {
      "inputs": [
        {
          "internalType": "uint256",
          "name": "tokenId",
          "type": "uint256"
        }
      ],
      "name": "ownerOf",
      "outputs": [
        {
          "internalType": "address",
          "name": "",
          "type": "address"
        }
      ],
      "stateMutability": "view",
      "type": "function"
    },
    {
      "inputs": [],
      "name": "paused",
      "outputs": [
        {
          "internalType": "bool",
          "name": "",
          "type": "bool"
        }
      ],
      "stateMutability": "view",
      "type": "function"
    },
    {
      "inputs": [],
      "name": "renounceOwnership",
      "outputs": [],
      "stateMutability": "nonpayable",
      "type": "function"
    },
    {
      "inputs": [
        {
          "internalType": "address",
          "name": "_receiver",
          "type": "address"
        }
      ],
      "name": "safeMint",
      "outputs": [],
      "stateMutability": "nonpayable",
      "type": "function"
    },
    {
      "inputs": [
        {
          "internalType": "address",
          "name": "from",
          "type": "address"
        },
        {
          "internalType": "address",
          "name": "to",
          "type": "address"
        },
        {
          "internalType": "uint256",
          "name": "tokenId",
          "type": "uint256"
        }
      ],
      "name": "safeTransferFrom",
      "outputs": [],
      "stateMutability": "nonpayable",
      "type": "function"
    },
    {
      "inputs": [
        {
          "internalType": "address",
          "name": "from",
          "type": "address"
        },
        {
          "internalType": "address",
          "name": "to",
          "type": "address"
        },
        {
          "internalType": "uint256",
          "name": "tokenId",
          "type": "uint256"
        },
        {
          "internalType": "bytes",
          "name": "data",
          "type": "bytes"
        }
      ],
      "name": "safeTransferFrom",
      "outputs": [],
      "stateMutability": "nonpayable",
      "type": "function"
    },
    {
      "inputs": [
        {
          "internalType": "address",
          "name": "operator",
          "type": "address"
        },
        {
          "internalType": "bool",
          "name": "approved",
          "type": "bool"
        }
      ],
      "name": "setApprovalForAll",
      "outputs": [],
      "stateMutability": "nonpayable",
      "type": "function"
    },
    {
      "inputs": [
        {
          "internalType": "string",
          "name": "_baseURI",
          "type": "string"
        }
      ],
      "name": "setBaseTokenUri",
      "outputs": [],
      "stateMutability": "nonpayable",
      "type": "function"
    },
    {
      "inputs": [
        {
          "internalType": "bytes4",
          "name": "interfaceId",
          "type": "bytes4"
        }
      ],
      "name": "supportsInterface",
      "outputs": [
        {
          "internalType": "bool",
          "name": "",
          "type": "bool"
        }
      ],
      "stateMutability": "view",
      "type": "function"
    },
    {
      "inputs": [],
      "name": "symbol",
      "outputs": [
        {
          "internalType": "string",
          "name": "",
          "type": "string"
        }
      ],
      "stateMutability": "view",
      "type": "function"
    },
    {
      "inputs": [
        {
          "internalType": "uint256",
          "name": "_tokenID",
          "type": "uint256"
        }
      ],
      "name": "tokenURI",
      "outputs": [
        {
          "internalType": "string",
          "name": "",
          "type": "string"
        }
      ],
      "stateMutability": "view",
      "type": "function"
    },
    {
      "inputs": [],
      "name": "totalSupply",
      "outputs": [
        {
          "internalType": "uint256",
          "name": "",
          "type": "uint256"
        }
      ],
      "stateMutability": "view",
      "type": "function"
    },
    {
      "inputs": [
        {
          "internalType": "address",
          "name": "from",
          "type": "address"
        },
        {
          "internalType": "address",
          "name": "to",
          "type": "address"
        },
        {
          "internalType": "uint256",
          "name": "tokenId",
          "type": "uint256"
        }
      ],
      "name": "transferFrom",
      "outputs": [],
      "stateMutability": "nonpayable",
      "type": "function"
    },
    {
      "inputs": [
        {
          "internalType": "address",
          "name": "newOwner",
          "type": "address"
        }
      ],
      "name": "transferOwnership",
      "outputs": [],
      "stateMutability": "nonpayable",
      "type": "function"
    },
    {
      "inputs": [
        {
          "internalType": "address",
          "name": "",
          "type": "address"
        }
      ],
      "name": "walletMints",
      "outputs": [
        {
          "internalType": "uint256",
          "name": "",
          "type": "uint256"
        }
      ],
      "stateMutability": "view",
      "type": "function"
    },
    {
      "inputs": [],
      "name": "withdraw",
      "outputs": [],
      "stateMutability": "nonpayable",
      "type": "function"
    },
    {
      "inputs": [],
      "name": "withdrawWallet",
      "outputs": [
        {
          "internalType": "address payable",
          "name": "",
          "type": "address"
        }
      ],
      "stateMutability": "view",
      "type": "function"
    }
  ],
  "bytecode": "0x6080604052604051620036a8380380620036a88339818101604052810190620000299190620002ad565b806040518060400160405280601681526020017f426f7865727320696e20507265646963616d656e7473000000000000000000008152506040518060400160405280600381526020017f42695000000000000000000000000000000000000000000000000000000000008152508160009081620000a7919062000559565b508060019081620000b9919062000559565b5050506000600660006101000a81548160ff021916908315150217905550600073ffffffffffffffffffffffffffffffffffffffff168173ffffffffffffffffffffffffffffffffffffffff16036200014c5760006040517f1e4fbdf700000000000000000000000000000000000000000000000000000000815260040162000143919062000651565b60405180910390fd5b6200015d816200017d60201b60201c565b506000600981905550608a6008819055506002600a81905550506200066e565b6000600660019054906101000a900473ffffffffffffffffffffffffffffffffffffffff16905081600660016101000a81548173ffffffffffffffffffffffffffffffffffffffff021916908373ffffffffffffffffffffffffffffffffffffffff1602179055508173ffffffffffffffffffffffffffffffffffffffff168173ffffffffffffffffffffffffffffffffffffffff167f8be0079c531659141344cd1fd0a4f28419497f9722a3daafe3b4186f6b6457e060405160405180910390a35050565b600080fd5b600073ffffffffffffffffffffffffffffffffffffffff82169050919050565b6000620002758262000248565b9050919050565b620002878162000268565b81146200029357600080fd5b50565b600081519050620002a7816200027c565b92915050565b600060208284031215620002c657620002c562000243565b5b6000620002d68482850162000296565b91505092915050565b600081519050919050565b7f4e487b7100000000000000000000000000000000000000000000000000000000600052604160045260246000fd5b7f4e487b7100000000000000000000000000000000000000000000000000000000600052602260045260246000fd5b600060028204905060018216806200036157607f821691505b60208210810362000377576200037662000319565b5b50919050565b60008190508160005260206000209050919050565b60006020601f8301049050919050565b600082821b905092915050565b600060088302620003e17fffffffffffffffffffffffffffffffffffffffffffffffffffffffffffffffff82620003a2565b620003ed8683620003a2565b95508019841693508086168417925050509392505050565b6000819050919050565b6000819050919050565b60006200043a620004346200042e8462000405565b6200040f565b62000405565b9050919050565b6000819050919050565b620004568362000419565b6200046e620004658262000441565b848454620003af565b825550505050565b600090565b6200048562000476565b620004928184846200044b565b505050565b5b81811015620004ba57620004ae6000826200047b565b60018101905062000498565b5050565b601f8211156200050957620004d3816200037d565b620004de8462000392565b81016020851015620004ee578190505b62000506620004fd8562000392565b83018262000497565b50505b505050565b600082821c905092915050565b60006200052e600019846008026200050e565b1980831691505092915050565b60006200054983836200051b565b9150826002028217905092915050565b6200056482620002df565b67ffffffffffffffff81111562000580576200057f620002ea565b5b6200058c825462000348565b62000599828285620004be565b600060209050601f831160018114620005d15760008415620005bc578287015190505b620005c885826200053b565b86555062000638565b601f198416620005e1866200037d565b60005b828110156200060b57848901518255600182019150602085019450602081019050620005e4565b868310156200062b578489015162000627601f8916826200051b565b8355505b6001600288020188555050505b505050505050565b6200064b8162000268565b82525050565b600060208201905062000668600083018462000640565b92915050565b61302a806200067e6000396000f3fe608060405234801561001057600080fd5b50600436106101e55760003560e01c806385d178f41161010f578063c4e41b22116100a2578063e985e9c511610071578063e985e9c51461054a578063e9e3a53e1461057a578063f0293fd3146105aa578063f2fde38b146105da576101e5565b8063c4e41b22146104c0578063c87b56dd146104de578063d5abeb011461050e578063e8a3d4851461052c576101e5565b8063a22cb465116100de578063a22cb4651461043a578063a3660fc814610456578063b44b3ed514610474578063b88d4fde146104a4576101e5565b806385d178f4146103c45780638da5cb5b146103e257806395652cfa1461040057806395d89b411461041c576101e5565b806340d097c3116101875780636352211e116101565780636352211e1461033c57806370a082311461036c578063714c53981461039c578063715018a6146103ba576101e5565b806340d097c3146102c857806342842e0e146102e4578063453c2310146103005780635c975abb1461031e576101e5565b8063095ea7b3116101c3578063095ea7b31461026857806318160ddd1461028457806323b872dd146102a25780633ccfd60b146102be576101e5565b806301ffc9a7146101ea57806306fdde031461021a578063081812fc14610238575b600080fd5b61020460048036038101906101ff9190612106565b6105f6565b604051610211919061214e565b60405180910390f35b610222610608565b60405161022f91906121f9565b60405180910390f35b610252600480360381019061024d9190612251565b61069a565b60405161025f91906122bf565b60405180910390f35b610282600480360381019061027d9190612306565b6106b6565b005b61028c6106cc565b6040516102999190612355565b60405180910390f35b6102bc60048036038101906102b79190612370565b6106d2565b005b6102c66107d4565b005b6102e260048036038101906102dd91906123c3565b6108ad565b005b6102fe60048036038101906102f99190612370565b610a3a565b005b610308610a5a565b6040516103159190612355565b60405180910390f35b610326610a60565b604051610333919061214e565b60405180910390f35b61035660048036038101906103519190612251565b610a77565b60405161036391906122bf565b60405180910390f35b610386600480360381019061038191906123c3565b610a89565b6040516103939190612355565b60405180910390f35b6103a4610b43565b6040516103b191906121f9565b60405180910390f35b6103c2610bd5565b005b6103cc610be9565b6040516103d99190612411565b60405180910390f35b6103ea610c0f565b6040516103f791906122bf565b60405180910390f35b61041a60048036038101906104159190612491565b610c39565b005b610424610c57565b60405161043191906121f9565b60405180910390f35b610454600480360381019061044f919061250a565b610ce9565b005b61045e610cff565b60405161046b91906121f9565b60405180910390f35b61048e600480360381019061048991906123c3565b610d8d565b60405161049b9190612608565b60405180910390f35b6104be60048036038101906104b9919061275a565b610e24565b005b6104c8610e41565b6040516104d59190612355565b60405180910390f35b6104f860048036038101906104f39190612251565b610e4b565b60405161050591906121f9565b60405180910390f35b610516610ec4565b6040516105239190612355565b60405180910390f35b610534610eca565b60405161054191906121f9565b60405180910390f35b610564600480360381019061055f91906127dd565b610eea565b604051610571919061214e565b60405180910390f35b610594600480360381019061058f91906123c3565b610f7e565b6040516105a19190612355565b60405180910390f35b6105c460048036038101906105bf91906123c3565b610fc7565b6040516105d19190612355565b60405180910390f35b6105f460048036038101906105ef91906123c3565b610fdf565b005b600061060182611065565b9050919050565b6060600080546106179061284c565b80601f01602080910402602001604051908101604052809291908181526020018280546106439061284c565b80156106905780601f1061066557610100808354040283529160200191610690565b820191906000526020600020905b81548152906001019060200180831161067357829003601f168201915b5050505050905090565b60006106a5826110c6565b506106af8261114e565b9050919050565b6106c882826106c361118b565b611193565b5050565b60095481565b600073ffffffffffffffffffffffffffffffffffffffff168273ffffffffffffffffffffffffffffffffffffffff16036107445760006040517f64a0ae9200000000000000000000000000000000000000000000000000000000815260040161073b91906122bf565b60405180910390fd5b6000610758838361075361118b565b6111a5565b90508373ffffffffffffffffffffffffffffffffffffffff168173ffffffffffffffffffffffffffffffffffffffff16146107ce578382826040517f64283d7b0000000000000000000000000000000000000000000000000000000081526004016107c59392919061287d565b60405180910390fd5b50505050565b6107dc6113bf565b6000600c60009054906101000a900473ffffffffffffffffffffffffffffffffffffffff1673ffffffffffffffffffffffffffffffffffffffff1647604051610824906128e5565b60006040518083038185875af1925050503d8060008114610861576040519150601f19603f3d011682016040523d82523d6000602084013e610866565b606091505b50509050806108aa576040517f08c379a00000000000000000000000000000000000000000000000000000000081526004016108a190612946565b60405180910390fd5b50565b6108b5611446565b600854600954106108c557600080fd5b600a54600d60003373ffffffffffffffffffffffffffffffffffffffff1673ffffffffffffffffffffffffffffffffffffffff1681526020019081526020016000205410610948576040517f08c379a000000000000000000000000000000000000000000000000000000000815260040161093f906129b2565b60405180910390fd5b60006009549050600d60003373ffffffffffffffffffffffffffffffffffffffff1673ffffffffffffffffffffffffffffffffffffffff168152602001908152602001600020600081548092919061099f90612a01565b9190505550600e60003373ffffffffffffffffffffffffffffffffffffffff1673ffffffffffffffffffffffffffffffffffffffff16815260200190815260200160002081908060018154018082558091505060019003906000526020600020016000909190919091505560096000815480929190610a1d90612a01565b9190505550610a2c8282611487565b610a3581610e4b565b505050565b610a5583838360405180602001604052806000815250610e24565b505050565b600a5481565b6000600660009054906101000a900460ff16905090565b6000610a82826110c6565b9050919050565b60008073ffffffffffffffffffffffffffffffffffffffff168273ffffffffffffffffffffffffffffffffffffffff1603610afc5760006040517f89c62b64000000000000000000000000000000000000000000000000000000008152600401610af391906122bf565b60405180910390fd5b600360008373ffffffffffffffffffffffffffffffffffffffff1673ffffffffffffffffffffffffffffffffffffffff168152602001908152602001600020549050919050565b6060600b8054610b529061284c565b80601f0160208091040260200160405190810160405280929190818152602001828054610b7e9061284c565b8015610bcb5780601f10610ba057610100808354040283529160200191610bcb565b820191906000526020600020905b815481529060010190602001808311610bae57829003601f168201915b5050505050905090565b610bdd6113bf565b610be760006114a5565b565b600c60009054906101000a900473ffffffffffffffffffffffffffffffffffffffff1681565b6000600660019054906101000a900473ffffffffffffffffffffffffffffffffffffffff16905090565b610c416113bf565b8181600b9182610c52929190612c00565b505050565b606060018054610c669061284c565b80601f0160208091040260200160405190810160405280929190818152602001828054610c929061284c565b8015610cdf5780601f10610cb457610100808354040283529160200191610cdf565b820191906000526020600020905b815481529060010190602001808311610cc257829003601f168201915b5050505050905090565b610cfb610cf461118b565b838361156b565b5050565b600b8054610d0c9061284c565b80601f0160208091040260200160405190810160405280929190818152602001828054610d389061284c565b8015610d855780601f10610d5a57610100808354040283529160200191610d85565b820191906000526020600020905b815481529060010190602001808311610d6857829003601f168201915b505050505081565b6060600e60008373ffffffffffffffffffffffffffffffffffffffff1673ffffffffffffffffffffffffffffffffffffffff168152602001908152602001600020805480602002602001604051908101604052809291908181526020018280548015610e1857602002820191906000526020600020905b815481526020019060010190808311610e04575b50505050509050919050565b610e2f8484846106d2565b610e3b848484846116da565b50505050565b6000600954905090565b6060600954821115610e92576040517f08c379a0000000000000000000000000000000000000000000000000000000008152600401610e8990612d1c565b60405180910390fd5b600b610e9d83611891565b604051602001610eae929190612e47565b6040516020818303038152906040529050919050565b60085481565b6060604051806080016040528060438152602001612fb260439139905090565b6000600560008473ffffffffffffffffffffffffffffffffffffffff1673ffffffffffffffffffffffffffffffffffffffff16815260200190815260200160002060008373ffffffffffffffffffffffffffffffffffffffff1673ffffffffffffffffffffffffffffffffffffffff16815260200190815260200160002060009054906101000a900460ff16905092915050565b6000600d60008373ffffffffffffffffffffffffffffffffffffffff1673ffffffffffffffffffffffffffffffffffffffff168152602001908152602001600020549050919050565b600d6020528060005260406000206000915090505481565b610fe76113bf565b600073ffffffffffffffffffffffffffffffffffffffff168173ffffffffffffffffffffffffffffffffffffffff16036110595760006040517f1e4fbdf700000000000000000000000000000000000000000000000000000000815260040161105091906122bf565b60405180910390fd5b611062816114a5565b50565b6000634906490660e01b7bffffffffffffffffffffffffffffffffffffffffffffffffffffffff1916827bffffffffffffffffffffffffffffffffffffffffffffffffffffffff191614806110bf57506110be8261195f565b5b9050919050565b6000806110d283611a41565b9050600073ffffffffffffffffffffffffffffffffffffffff168173ffffffffffffffffffffffffffffffffffffffff160361114557826040517f7e27328900000000000000000000000000000000000000000000000000000000815260040161113c9190612355565b60405180910390fd5b80915050919050565b60006004600083815260200190815260200160002060009054906101000a900473ffffffffffffffffffffffffffffffffffffffff169050919050565b600033905090565b6111a08383836001611a7e565b505050565b6000806111b184611a41565b9050600073ffffffffffffffffffffffffffffffffffffffff168373ffffffffffffffffffffffffffffffffffffffff16146111f3576111f2818486611c43565b5b600073ffffffffffffffffffffffffffffffffffffffff168173ffffffffffffffffffffffffffffffffffffffff161461128457611235600085600080611a7e565b6001600360008373ffffffffffffffffffffffffffffffffffffffff1673ffffffffffffffffffffffffffffffffffffffff168152602001908152602001600020600082825403925050819055505b600073ffffffffffffffffffffffffffffffffffffffff168573ffffffffffffffffffffffffffffffffffffffff1614611307576001600360008773ffffffffffffffffffffffffffffffffffffffff1673ffffffffffffffffffffffffffffffffffffffff168152602001908152602001600020600082825401925050819055505b846002600086815260200190815260200160002060006101000a81548173ffffffffffffffffffffffffffffffffffffffff021916908373ffffffffffffffffffffffffffffffffffffffff160217905550838573ffffffffffffffffffffffffffffffffffffffff168273ffffffffffffffffffffffffffffffffffffffff167fddf252ad1be2c89b69c2b068fc378daa952ba7f163c4a11628f55a4df523b3ef60405160405180910390a4809150509392505050565b6113c761118b565b73ffffffffffffffffffffffffffffffffffffffff166113e5610c0f565b73ffffffffffffffffffffffffffffffffffffffff16146114445761140861118b565b6040517f118cdaa700000000000000000000000000000000000000000000000000000000815260040161143b91906122bf565b60405180910390fd5b565b61144e610a60565b15611485576040517fd93c066500000000000000000000000000000000000000000000000000000000815260040160405180910390fd5b565b6114a1828260405180602001604052806000815250611d07565b5050565b6000600660019054906101000a900473ffffffffffffffffffffffffffffffffffffffff16905081600660016101000a81548173ffffffffffffffffffffffffffffffffffffffff021916908373ffffffffffffffffffffffffffffffffffffffff1602179055508173ffffffffffffffffffffffffffffffffffffffff168173ffffffffffffffffffffffffffffffffffffffff167f8be0079c531659141344cd1fd0a4f28419497f9722a3daafe3b4186f6b6457e060405160405180910390a35050565b600073ffffffffffffffffffffffffffffffffffffffff168273ffffffffffffffffffffffffffffffffffffffff16036115dc57816040517f5b08ba180000000000000000000000000000000000000000000000000000000081526004016115d391906122bf565b60405180910390fd5b80600560008573ffffffffffffffffffffffffffffffffffffffff1673ffffffffffffffffffffffffffffffffffffffff16815260200190815260200160002060008473ffffffffffffffffffffffffffffffffffffffff1673ffffffffffffffffffffffffffffffffffffffff16815260200190815260200160002060006101000a81548160ff0219169083151502179055508173ffffffffffffffffffffffffffffffffffffffff168373ffffffffffffffffffffffffffffffffffffffff167f17307eab39ab6107e8899845ad3d59bd9653f200f220920489ca2b5937696c31836040516116cd919061214e565b60405180910390a3505050565b60008373ffffffffffffffffffffffffffffffffffffffff163b111561188b578273ffffffffffffffffffffffffffffffffffffffff1663150b7a0261171e61118b565b8685856040518563ffffffff1660e01b81526004016117409493929190612ecb565b6020604051808303816000875af192505050801561177c57506040513d601f19601f820116820180604052508101906117799190612f2c565b60015b611800573d80600081146117ac576040519150601f19603f3d011682016040523d82523d6000602084013e6117b1565b606091505b5060008151036117f857836040517f64a0ae920000000000000000000000000000000000000000000000000000000081526004016117ef91906122bf565b60405180910390fd5b805181602001fd5b63150b7a0260e01b7bffffffffffffffffffffffffffffffffffffffffffffffffffffffff1916817bffffffffffffffffffffffffffffffffffffffffffffffffffffffff19161461188957836040517f64a0ae9200000000000000000000000000000000000000000000000000000000815260040161188091906122bf565b60405180910390fd5b505b50505050565b6060600060016118a084611d23565b01905060008167ffffffffffffffff8111156118bf576118be61262f565b5b6040519080825280601f01601f1916602001820160405280156118f15781602001600182028036833780820191505090505b509050600082602001820190505b600115611954578080600190039150507f3031323334353637383961626364656600000000000000000000000000000000600a86061a8153600a858161194857611947612f59565b5b049450600085036118ff575b819350505050919050565b60007f80ac58cd000000000000000000000000000000000000000000000000000000007bffffffffffffffffffffffffffffffffffffffffffffffffffffffff1916827bffffffffffffffffffffffffffffffffffffffffffffffffffffffff19161480611a2a57507f5b5e139f000000000000000000000000000000000000000000000000000000007bffffffffffffffffffffffffffffffffffffffffffffffffffffffff1916827bffffffffffffffffffffffffffffffffffffffffffffffffffffffff1916145b80611a3a5750611a3982611e76565b5b9050919050565b60006002600083815260200190815260200160002060009054906101000a900473ffffffffffffffffffffffffffffffffffffffff169050919050565b8080611ab75750600073ffffffffffffffffffffffffffffffffffffffff168273ffffffffffffffffffffffffffffffffffffffff1614155b15611beb576000611ac7846110c6565b9050600073ffffffffffffffffffffffffffffffffffffffff168373ffffffffffffffffffffffffffffffffffffffff1614158015611b3257508273ffffffffffffffffffffffffffffffffffffffff168173ffffffffffffffffffffffffffffffffffffffff1614155b8015611b455750611b438184610eea565b155b15611b8757826040517fa9fbf51f000000000000000000000000000000000000000000000000000000008152600401611b7e91906122bf565b60405180910390fd5b8115611be957838573ffffffffffffffffffffffffffffffffffffffff168273ffffffffffffffffffffffffffffffffffffffff167f8c5be1e5ebec7d5bd14f71427d1e84f3dd0314c0f7b2291e5b200ac8c7c3b92560405160405180910390a45b505b836004600085815260200190815260200160002060006101000a81548173ffffffffffffffffffffffffffffffffffffffff021916908373ffffffffffffffffffffffffffffffffffffffff16021790555050505050565b611c4e838383611ee0565b611d0257600073ffffffffffffffffffffffffffffffffffffffff168373ffffffffffffffffffffffffffffffffffffffff1603611cc357806040517f7e273289000000000000000000000000000000000000000000000000000000008152600401611cba9190612355565b60405180910390fd5b81816040517f177e802f000000000000000000000000000000000000000000000000000000008152600401611cf9929190612f88565b60405180910390fd5b505050565b611d118383611fa1565b611d1e60008484846116da565b505050565b600080600090507a184f03e93ff9f4daa797ed6e38ed64bf6a1f0100000000000000008310611d81577a184f03e93ff9f4daa797ed6e38ed64bf6a1f0100000000000000008381611d7757611d76612f59565b5b0492506040810190505b6d04ee2d6d415b85acef81000000008310611dbe576d04ee2d6d415b85acef81000000008381611db457611db3612f59565b5b0492506020810190505b662386f26fc100008310611ded57662386f26fc100008381611de357611de2612f59565b5b0492506010810190505b6305f5e1008310611e16576305f5e1008381611e0c57611e0b612f59565b5b0492506008810190505b6127108310611e3b576127108381611e3157611e30612f59565b5b0492506004810190505b60648310611e5e5760648381611e5457611e53612f59565b5b0492506002810190505b600a8310611e6d576001810190505b80915050919050565b60007f01ffc9a7000000000000000000000000000000000000000000000000000000007bffffffffffffffffffffffffffffffffffffffffffffffffffffffff1916827bffffffffffffffffffffffffffffffffffffffffffffffffffffffff1916149050919050565b60008073ffffffffffffffffffffffffffffffffffffffff168373ffffffffffffffffffffffffffffffffffffffff1614158015611f9857508273ffffffffffffffffffffffffffffffffffffffff168473ffffffffffffffffffffffffffffffffffffffff161480611f595750611f588484610eea565b5b80611f9757508273ffffffffffffffffffffffffffffffffffffffff16611f7f8361114e565b73ffffffffffffffffffffffffffffffffffffffff16145b5b90509392505050565b600073ffffffffffffffffffffffffffffffffffffffff168273ffffffffffffffffffffffffffffffffffffffff16036120135760006040517f64a0ae9200000000000000000000000000000000000000000000000000000000815260040161200a91906122bf565b60405180910390fd5b6000612021838360006111a5565b9050600073ffffffffffffffffffffffffffffffffffffffff168173ffffffffffffffffffffffffffffffffffffffff16146120955760006040517f73c6ac6e00000000000000000000000000000000000000000000000000000000815260040161208c91906122bf565b60405180910390fd5b505050565b6000604051905090565b600080fd5b600080fd5b60007fffffffff0000000000000000000000000000000000000000000000000000000082169050919050565b6120e3816120ae565b81146120ee57600080fd5b50565b600081359050612100816120da565b92915050565b60006020828403121561211c5761211b6120a4565b5b600061212a848285016120f1565b91505092915050565b60008115159050919050565b61214881612133565b82525050565b6000602082019050612163600083018461213f565b92915050565b600081519050919050565b600082825260208201905092915050565b60005b838110156121a3578082015181840152602081019050612188565b60008484015250505050565b6000601f19601f8301169050919050565b60006121cb82612169565b6121d58185612174565b93506121e5818560208601612185565b6121ee816121af565b840191505092915050565b6000602082019050818103600083015261221381846121c0565b905092915050565b6000819050919050565b61222e8161221b565b811461223957600080fd5b50565b60008135905061224b81612225565b92915050565b600060208284031215612267576122666120a4565b5b60006122758482850161223c565b91505092915050565b600073ffffffffffffffffffffffffffffffffffffffff82169050919050565b60006122a98261227e565b9050919050565b6122b98161229e565b82525050565b60006020820190506122d460008301846122b0565b92915050565b6122e38161229e565b81146122ee57600080fd5b50565b600081359050612300816122da565b92915050565b6000806040838503121561231d5761231c6120a4565b5b600061232b858286016122f1565b925050602061233c8582860161223c565b9150509250929050565b61234f8161221b565b82525050565b600060208201905061236a6000830184612346565b92915050565b600080600060608486031215612389576123886120a4565b5b6000612397868287016122f1565b93505060206123a8868287016122f1565b92505060406123b98682870161223c565b9150509250925092565b6000602082840312156123d9576123d86120a4565b5b60006123e7848285016122f1565b91505092915050565b60006123fb8261227e565b9050919050565b61240b816123f0565b82525050565b60006020820190506124266000830184612402565b92915050565b600080fd5b600080fd5b600080fd5b60008083601f8401126124515761245061242c565b5b8235905067ffffffffffffffff81111561246e5761246d612431565b5b60208301915083600182028301111561248a57612489612436565b5b9250929050565b600080602083850312156124a8576124a76120a4565b5b600083013567ffffffffffffffff8111156124c6576124c56120a9565b5b6124d28582860161243b565b92509250509250929050565b6124e781612133565b81146124f257600080fd5b50565b600081359050612504816124de565b92915050565b60008060408385031215612521576125206120a4565b5b600061252f858286016122f1565b9250506020612540858286016124f5565b9150509250929050565b600081519050919050565b600082825260208201905092915050565b6000819050602082019050919050565b61257f8161221b565b82525050565b60006125918383612576565b60208301905092915050565b6000602082019050919050565b60006125b58261254a565b6125bf8185612555565b93506125ca83612566565b8060005b838110156125fb5781516125e28882612585565b97506125ed8361259d565b9250506001810190506125ce565b5085935050505092915050565b6000602082019050818103600083015261262281846125aa565b905092915050565b600080fd5b7f4e487b7100000000000000000000000000000000000000000000000000000000600052604160045260246000fd5b612667826121af565b810181811067ffffffffffffffff821117156126865761268561262f565b5b80604052505050565b600061269961209a565b90506126a5828261265e565b919050565b600067ffffffffffffffff8211156126c5576126c461262f565b5b6126ce826121af565b9050602081019050919050565b82818337600083830152505050565b60006126fd6126f8846126aa565b61268f565b9050828152602081018484840111156127195761271861262a565b5b6127248482856126db565b509392505050565b600082601f8301126127415761274061242c565b5b81356127518482602086016126ea565b91505092915050565b60008060008060808587031215612774576127736120a4565b5b6000612782878288016122f1565b9450506020612793878288016122f1565b93505060406127a48782880161223c565b925050606085013567ffffffffffffffff8111156127c5576127c46120a9565b5b6127d18782880161272c565b91505092959194509250565b600080604083850312156127f4576127f36120a4565b5b6000612802858286016122f1565b9250506020612813858286016122f1565b9150509250929050565b7f4e487b7100000000000000000000000000000000000000000000000000000000600052602260045260246000fd5b6000600282049050600182168061286457607f821691505b6020821081036128775761287661281d565b5b50919050565b600060608201905061289260008301866122b0565b61289f6020830185612346565b6128ac60408301846122b0565b949350505050565b600081905092915050565b50565b60006128cf6000836128b4565b91506128da826128bf565b600082019050919050565b60006128f0826128c2565b9150819050919050565b7f7769746864726177206661696c65640000000000000000000000000000000000600082015250565b6000612930600f83612174565b915061293b826128fa565b602082019050919050565b6000602082019050818103600083015261295f81612923565b9050919050565b7f416c7265616479206d696e746564206d6178207065722077616c6c6574000000600082015250565b600061299c601d83612174565b91506129a782612966565b602082019050919050565b600060208201905081810360008301526129cb8161298f565b9050919050565b7f4e487b7100000000000000000000000000000000000000000000000000000000600052601160045260246000fd5b6000612a0c8261221b565b91507fffffffffffffffffffffffffffffffffffffffffffffffffffffffffffffffff8203612a3e57612a3d6129d2565b5b600182019050919050565b600082905092915050565b60008190508160005260206000209050919050565b60006020601f8301049050919050565b600082821b905092915050565b600060088302612ab67fffffffffffffffffffffffffffffffffffffffffffffffffffffffffffffffff82612a79565b612ac08683612a79565b95508019841693508086168417925050509392505050565b6000819050919050565b6000612afd612af8612af38461221b565b612ad8565b61221b565b9050919050565b6000819050919050565b612b1783612ae2565b612b2b612b2382612b04565b848454612a86565b825550505050565b600090565b612b40612b33565b612b4b818484612b0e565b505050565b5b81811015612b6f57612b64600082612b38565b600181019050612b51565b5050565b601f821115612bb457612b8581612a54565b612b8e84612a69565b81016020851015612b9d578190505b612bb1612ba985612a69565b830182612b50565b50505b505050565b600082821c905092915050565b6000612bd760001984600802612bb9565b1980831691505092915050565b6000612bf08383612bc6565b9150826002028217905092915050565b612c0a8383612a49565b67ffffffffffffffff811115612c2357612c2261262f565b5b612c2d825461284c565b612c38828285612b73565b6000601f831160018114612c675760008415612c55578287013590505b612c5f8582612be4565b865550612cc7565b601f198416612c7586612a54565b60005b82811015612c9d57848901358255600182019150602085019450602081019050612c78565b86831015612cba5784890135612cb6601f891682612bc6565b8355505b6001600288020188555050505b50505050505050565b7f546f6b656e20646f6573206e6f74206578697374000000000000000000000000600082015250565b6000612d06601483612174565b9150612d1182612cd0565b602082019050919050565b60006020820190508181036000830152612d3581612cf9565b9050919050565b600081905092915050565b60008154612d548161284c565b612d5e8186612d3c565b94506001821660008114612d795760018114612d8e57612dc1565b60ff1983168652811515820286019350612dc1565b612d9785612a54565b60005b83811015612db957815481890152600182019150602081019050612d9a565b838801955050505b50505092915050565b6000612dd582612169565b612ddf8185612d3c565b9350612def818560208601612185565b80840191505092915050565b7f2e6a736f6e000000000000000000000000000000000000000000000000000000600082015250565b6000612e31600583612d3c565b9150612e3c82612dfb565b600582019050919050565b6000612e538285612d47565b9150612e5f8284612dca565b9150612e6a82612e24565b91508190509392505050565b600081519050919050565b600082825260208201905092915050565b6000612e9d82612e76565b612ea78185612e81565b9350612eb7818560208601612185565b612ec0816121af565b840191505092915050565b6000608082019050612ee060008301876122b0565b612eed60208301866122b0565b612efa6040830185612346565b8181036060830152612f0c8184612e92565b905095945050505050565b600081519050612f26816120da565b92915050565b600060208284031215612f4257612f416120a4565b5b6000612f5084828501612f17565b91505092915050565b7f4e487b7100000000000000000000000000000000000000000000000000000000600052601260045260246000fd5b6000604082019050612f9d60008301856122b0565b612faa6020830184612346565b939250505056fe68747470733a2f2f697066732e696f2f697066732f516d4e596e6e6533484c4a584a5051766d314e364b61505665627a45463751774a78685865506a796f5172663850a2646970667358221220bb5bdb433ea41ece0b968a7fdde2a24c879f98c0ffb06c5331fdf469b711905664736f6c63430008180033",
  "linkReferences": {},
  "deployedLinkReferences": {}
}