{
  "_format": "hh-sol-artifact-1",
  "contractName": "MERNS",
  "sourceName": "contracts/PortfolioNFT.sol",
  "abi": [
    {
      "inputs": [
        {
          "internalType": "address",
          "name": "initialOwner",
          "type": "address"
        }
      ],
      "stateMutability": "nonpayable",
      "type": "constructor"
    },
    {
      "inputs": [
        {
          "internalType": "address",
          "name": "sender",
          "type": "address"
        },
        {
          "internalType": "uint256",
          "name": "tokenId",
          "type": "uint256"
        },
        {
          "internalType": "address",
          "name": "owner",
          "type": "address"
        }
      ],
      "name": "ERC721IncorrectOwner",
      "type": "error"
    },
    {
      "inputs": [
        {
          "internalType": "address",
          "name": "operator",
          "type": "address"
        },
        {
          "internalType": "uint256",
          "name": "tokenId",
          "type": "uint256"
        }
      ],
      "name": "ERC721InsufficientApproval",
      "type": "error"
    },
    {
      "inputs": [
        {
          "internalType": "address",
          "name": "approver",
          "type": "address"
        }
      ],
      "name": "ERC721InvalidApprover",
      "type": "error"
    },
    {
      "inputs": [
        {
          "internalType": "address",
          "name": "operator",
          "type": "address"
        }
      ],
      "name": "ERC721InvalidOperator",
      "type": "error"
    },
    {
      "inputs": [
        {
          "internalType": "address",
          "name": "owner",
          "type": "address"
        }
      ],
      "name": "ERC721InvalidOwner",
      "type": "error"
    },
    {
      "inputs": [
        {
          "internalType": "address",
          "name": "receiver",
          "type": "address"
        }
      ],
      "name": "ERC721InvalidReceiver",
      "type": "error"
    },
    {
      "inputs": [
        {
          "internalType": "address",
          "name": "sender",
          "type": "address"
        }
      ],
      "name": "ERC721InvalidSender",
      "type": "error"
    },
    {
      "inputs": [
        {
          "internalType": "uint256",
          "name": "tokenId",
          "type": "uint256"
        }
      ],
      "name": "ERC721NonexistentToken",
      "type": "error"
    },
    {
      "inputs": [],
      "name": "EnforcedPause",
      "type": "error"
    },
    {
      "inputs": [],
      "name": "ExpectedPause",
      "type": "error"
    },
    {
      "inputs": [
        {
          "internalType": "address",
          "name": "owner",
          "type": "address"
        }
      ],
      "name": "OwnableInvalidOwner",
      "type": "error"
    },
    {
      "inputs": [
        {
          "internalType": "address",
          "name": "account",
          "type": "address"
        }
      ],
      "name": "OwnableUnauthorizedAccount",
      "type": "error"
    },
    {
      "anonymous": false,
      "inputs": [
        {
          "indexed": true,
          "internalType": "address",
          "name": "owner",
          "type": "address"
        },
        {
          "indexed": true,
          "internalType": "address",
          "name": "approved",
          "type": "address"
        },
        {
          "indexed": true,
          "internalType": "uint256",
          "name": "tokenId",
          "type": "uint256"
        }
      ],
      "name": "Approval",
      "type": "event"
    },
    {
      "anonymous": false,
      "inputs": [
        {
          "indexed": true,
          "internalType": "address",
          "name": "owner",
          "type": "address"
        },
        {
          "indexed": true,
          "internalType": "address",
          "name": "operator",
          "type": "address"
        },
        {
          "indexed": false,
          "internalType": "bool",
          "name": "approved",
          "type": "bool"
        }
      ],
      "name": "ApprovalForAll",
      "type": "event"
    },
    {
      "anonymous": false,
      "inputs": [
        {
          "indexed": false,
          "internalType": "uint256",
          "name": "_fromTokenId",
          "type": "uint256"
        },
        {
          "indexed": false,
          "internalType": "uint256",
          "name": "_toTokenId",
          "type": "uint256"
        }
      ],
      "name": "BatchMetadataUpdate",
      "type": "event"
    },
    {
      "anonymous": false,
      "inputs": [
        {
          "indexed": false,
          "internalType": "uint256",
          "name": "_tokenId",
          "type": "uint256"
        }
      ],
      "name": "MetadataUpdate",
      "type": "event"
    },
    {
      "anonymous": false,
      "inputs": [
        {
          "indexed": true,
          "internalType": "address",
          "name": "previousOwner",
          "type": "address"
        },
        {
          "indexed": true,
          "internalType": "address",
          "name": "newOwner",
          "type": "address"
        }
      ],
      "name": "OwnershipTransferred",
      "type": "event"
    },
    {
      "anonymous": false,
      "inputs": [
        {
          "indexed": false,
          "internalType": "address",
          "name": "account",
          "type": "address"
        }
      ],
      "name": "Paused",
      "type": "event"
    },
    {
      "anonymous": false,
      "inputs": [
        {
          "indexed": true,
          "internalType": "address",
          "name": "from",
          "type": "address"
        },
        {
          "indexed": true,
          "internalType": "address",
          "name": "to",
          "type": "address"
        },
        {
          "indexed": true,
          "internalType": "uint256",
          "name": "tokenId",
          "type": "uint256"
        }
      ],
      "name": "Transfer",
      "type": "event"
    },
    {
      "anonymous": false,
      "inputs": [
        {
          "indexed": false,
          "internalType": "address",
          "name": "account",
          "type": "address"
        }
      ],
      "name": "Unpaused",
      "type": "event"
    },
    {
      "inputs": [
        {
          "internalType": "address",
          "name": "to",
          "type": "address"
        },
        {
          "internalType": "uint256",
          "name": "tokenId",
          "type": "uint256"
        }
      ],
      "name": "approve",
      "outputs": [],
      "stateMutability": "nonpayable",
      "type": "function"
    },
    {
      "inputs": [
        {
          "internalType": "address",
          "name": "owner",
          "type": "address"
        }
      ],
      "name": "balanceOf",
      "outputs": [
        {
          "internalType": "uint256",
          "name": "",
          "type": "uint256"
        }
      ],
      "stateMutability": "view",
      "type": "function"
    },
    {
      "inputs": [],
      "name": "getAllMintedWallets",
      "outputs": [
        {
          "internalType": "address[]",
          "name": "",
          "type": "address[]"
        }
      ],
      "stateMutability": "view",
      "type": "function"
    },
    {
      "inputs": [
        {
          "internalType": "uint256",
          "name": "tokenId",
          "type": "uint256"
        }
      ],
      "name": "getApproved",
      "outputs": [
        {
          "internalType": "address",
          "name": "",
          "type": "address"
        }
      ],
      "stateMutability": "view",
      "type": "function"
    },
    {
      "inputs": [
        {
          "internalType": "address",
          "name": "wallet",
          "type": "address"
        }
      ],
      "name": "getWalletMints",
      "outputs": [
        {
          "internalType": "uint256",
          "name": "",
          "type": "uint256"
        }
      ],
      "stateMutability": "view",
      "type": "function"
    },
    {
      "inputs": [
        {
          "internalType": "address",
          "name": "owner",
          "type": "address"
        },
        {
          "internalType": "address",
          "name": "operator",
          "type": "address"
        }
      ],
      "name": "isApprovedForAll",
      "outputs": [
        {
          "internalType": "bool",
          "name": "",
          "type": "bool"
        }
      ],
      "stateMutability": "view",
      "type": "function"
    },
    {
      "inputs": [],
      "name": "name",
      "outputs": [
        {
          "internalType": "string",
          "name": "",
          "type": "string"
        }
      ],
      "stateMutability": "view",
      "type": "function"
    },
    {
      "inputs": [],
      "name": "owner",
      "outputs": [
        {
          "internalType": "address",
          "name": "",
          "type": "address"
        }
      ],
      "stateMutability": "view",
      "type": "function"
    },
    {
      "inputs": [
        {
          "internalType": "uint256",
          "name": "tokenId",
          "type": "uint256"
        }
      ],
      "name": "ownerOf",
      "outputs": [
        {
          "internalType": "address",
          "name": "",
          "type": "address"
        }
      ],
      "stateMutability": "view",
      "type": "function"
    },
    {
      "inputs": [],
      "name": "paused",
      "outputs": [
        {
          "internalType": "bool",
          "name": "",
          "type": "bool"
        }
      ],
      "stateMutability": "view",
      "type": "function"
    },
    {
      "inputs": [],
      "name": "renounceOwnership",
      "outputs": [],
      "stateMutability": "nonpayable",
      "type": "function"
    },
    {
      "inputs": [
        {
          "internalType": "address",
          "name": "_receiver",
          "type": "address"
        },
        {
          "internalType": "string",
          "name": "_tokenURI",
          "type": "string"
        }
      ],
      "name": "safeMint",
      "outputs": [],
      "stateMutability": "nonpayable",
      "type": "function"
    },
    {
      "inputs": [
        {
          "internalType": "address",
          "name": "from",
          "type": "address"
        },
        {
          "internalType": "address",
          "name": "to",
          "type": "address"
        },
        {
          "internalType": "uint256",
          "name": "tokenId",
          "type": "uint256"
        }
      ],
      "name": "safeTransferFrom",
      "outputs": [],
      "stateMutability": "nonpayable",
      "type": "function"
    },
    {
      "inputs": [
        {
          "internalType": "address",
          "name": "from",
          "type": "address"
        },
        {
          "internalType": "address",
          "name": "to",
          "type": "address"
        },
        {
          "internalType": "uint256",
          "name": "tokenId",
          "type": "uint256"
        },
        {
          "internalType": "bytes",
          "name": "data",
          "type": "bytes"
        }
      ],
      "name": "safeTransferFrom",
      "outputs": [],
      "stateMutability": "nonpayable",
      "type": "function"
    },
    {
      "inputs": [
        {
          "internalType": "address",
          "name": "operator",
          "type": "address"
        },
        {
          "internalType": "bool",
          "name": "approved",
          "type": "bool"
        }
      ],
      "name": "setApprovalForAll",
      "outputs": [],
      "stateMutability": "nonpayable",
      "type": "function"
    },
    {
      "inputs": [
        {
          "internalType": "bytes4",
          "name": "interfaceId",
          "type": "bytes4"
        }
      ],
      "name": "supportsInterface",
      "outputs": [
        {
          "internalType": "bool",
          "name": "",
          "type": "bool"
        }
      ],
      "stateMutability": "view",
      "type": "function"
    },
    {
      "inputs": [],
      "name": "symbol",
      "outputs": [
        {
          "internalType": "string",
          "name": "",
          "type": "string"
        }
      ],
      "stateMutability": "view",
      "type": "function"
    },
    {
      "inputs": [
        {
          "internalType": "uint256",
          "name": "tokenId",
          "type": "uint256"
        }
      ],
      "name": "tokenURI",
      "outputs": [
        {
          "internalType": "string",
          "name": "",
          "type": "string"
        }
      ],
      "stateMutability": "view",
      "type": "function"
    },
    {
      "inputs": [],
      "name": "totalSupply",
      "outputs": [
        {
          "internalType": "uint256",
          "name": "",
          "type": "uint256"
        }
      ],
      "stateMutability": "view",
      "type": "function"
    },
    {
      "inputs": [
        {
          "internalType": "address",
          "name": "from",
          "type": "address"
        },
        {
          "internalType": "address",
          "name": "to",
          "type": "address"
        },
        {
          "internalType": "uint256",
          "name": "tokenId",
          "type": "uint256"
        }
      ],
      "name": "transferFrom",
      "outputs": [],
      "stateMutability": "nonpayable",
      "type": "function"
    },
    {
      "inputs": [
        {
          "internalType": "address",
          "name": "newOwner",
          "type": "address"
        }
      ],
      "name": "transferOwnership",
      "outputs": [],
      "stateMutability": "nonpayable",
      "type": "function"
    },
    {
      "inputs": [
        {
          "internalType": "address",
          "name": "",
          "type": "address"
        }
      ],
      "name": "walletNumMints",
      "outputs": [
        {
          "internalType": "uint256",
          "name": "",
          "type": "uint256"
        }
      ],
      "stateMutability": "view",
      "type": "function"
    },
    {
      "inputs": [
        {
          "internalType": "uint256",
          "name": "",
          "type": "uint256"
        }
      ],
      "name": "walletsArray",
      "outputs": [
        {
          "internalType": "address",
          "name": "",
          "type": "address"
        }
      ],
      "stateMutability": "view",
      "type": "function"
    }
  ],
  "bytecode": "0x60806040523480156200001157600080fd5b5060405162003080380380620030808339818101604052810190620000379190620002a3565b806040518060400160405280601681526020017f426f7865727320696e20507265646963616d656e7473000000000000000000008152506040518060400160405280600381526020017f42695000000000000000000000000000000000000000000000000000000000008152508160009081620000b591906200054f565b508060019081620000c791906200054f565b5050506000600660006101000a81548160ff021916908315150217905550600073ffffffffffffffffffffffffffffffffffffffff168173ffffffffffffffffffffffffffffffffffffffff16036200015a5760006040517f1e4fbdf700000000000000000000000000000000000000000000000000000000815260040162000151919062000647565b60405180910390fd5b6200016b816200017360201b60201c565b505062000664565b6000600660019054906101000a900473ffffffffffffffffffffffffffffffffffffffff16905081600660016101000a81548173ffffffffffffffffffffffffffffffffffffffff021916908373ffffffffffffffffffffffffffffffffffffffff1602179055508173ffffffffffffffffffffffffffffffffffffffff168173ffffffffffffffffffffffffffffffffffffffff167f8be0079c531659141344cd1fd0a4f28419497f9722a3daafe3b4186f6b6457e060405160405180910390a35050565b600080fd5b600073ffffffffffffffffffffffffffffffffffffffff82169050919050565b60006200026b826200023e565b9050919050565b6200027d816200025e565b81146200028957600080fd5b50565b6000815190506200029d8162000272565b92915050565b600060208284031215620002bc57620002bb62000239565b5b6000620002cc848285016200028c565b91505092915050565b600081519050919050565b7f4e487b7100000000000000000000000000000000000000000000000000000000600052604160045260246000fd5b7f4e487b7100000000000000000000000000000000000000000000000000000000600052602260045260246000fd5b600060028204905060018216806200035757607f821691505b6020821081036200036d576200036c6200030f565b5b50919050565b60008190508160005260206000209050919050565b60006020601f8301049050919050565b600082821b905092915050565b600060088302620003d77fffffffffffffffffffffffffffffffffffffffffffffffffffffffffffffffff8262000398565b620003e3868362000398565b95508019841693508086168417925050509392505050565b6000819050919050565b6000819050919050565b6000620004306200042a6200042484620003fb565b62000405565b620003fb565b9050919050565b6000819050919050565b6200044c836200040f565b620004646200045b8262000437565b848454620003a5565b825550505050565b600090565b6200047b6200046c565b6200048881848462000441565b505050565b5b81811015620004b057620004a460008262000471565b6001810190506200048e565b5050565b601f821115620004ff57620004c98162000373565b620004d48462000388565b81016020851015620004e4578190505b620004fc620004f38562000388565b8301826200048d565b50505b505050565b600082821c905092915050565b6000620005246000198460080262000504565b1980831691505092915050565b60006200053f838362000511565b9150826002028217905092915050565b6200055a82620002d5565b67ffffffffffffffff811115620005765762000575620002e0565b5b6200058282546200033e565b6200058f828285620004b4565b600060209050601f831160018114620005c75760008415620005b2578287015190505b620005be858262000531565b8655506200062e565b601f198416620005d78662000373565b60005b828110156200060157848901518255600182019150602085019450602081019050620005da565b868310156200062157848901516200061d601f89168262000511565b8355505b6001600288020188555050505b505050505050565b62000641816200025e565b82525050565b60006020820190506200065e600083018462000636565b92915050565b612a0c80620006746000396000f3fe608060405234801561001057600080fd5b506004361061014d5760003560e01c8063715018a6116100c3578063b88d4fde1161007c578063b88d4fde146103a0578063c87b56dd146103bc578063d204c45e146103ec578063e985e9c514610408578063e9e3a53e14610438578063f2fde38b146104685761014d565b8063715018a6146102de5780638a801d12146102e85780638b8edc9c146103185780638da5cb5b1461034857806395d89b4114610366578063a22cb465146103845761014d565b806323b872dd1161011557806323b872dd1461020a5780632a9e880d1461022657806342842e0e146102445780635c975abb146102605780636352211e1461027e57806370a08231146102ae5761014d565b806301ffc9a71461015257806306fdde0314610182578063081812fc146101a0578063095ea7b3146101d057806318160ddd146101ec575b600080fd5b61016c60048036038101906101679190611d98565b610484565b6040516101799190611de0565b60405180910390f35b61018a610496565b6040516101979190611e8b565b60405180910390f35b6101ba60048036038101906101b59190611ee3565b610528565b6040516101c79190611f51565b60405180910390f35b6101ea60048036038101906101e59190611f98565b610544565b005b6101f461055a565b6040516102019190611fe7565b60405180910390f35b610224600480360381019061021f9190612002565b610564565b005b61022e610666565b60405161023b9190612113565b60405180910390f35b61025e60048036038101906102599190612002565b6106f4565b005b610268610714565b6040516102759190611de0565b60405180910390f35b61029860048036038101906102939190611ee3565b61072b565b6040516102a59190611f51565b60405180910390f35b6102c860048036038101906102c39190612135565b61073d565b6040516102d59190611fe7565b60405180910390f35b6102e66107f7565b005b61030260048036038101906102fd9190612135565b61080b565b60405161030f9190611fe7565b60405180910390f35b610332600480360381019061032d9190611ee3565b610823565b60405161033f9190611f51565b60405180910390f35b610350610862565b60405161035d9190611f51565b60405180910390f35b61036e61088c565b60405161037b9190611e8b565b60405180910390f35b61039e6004803603810190610399919061218e565b61091e565b005b6103ba60048036038101906103b59190612303565b610934565b005b6103d660048036038101906103d19190611ee3565b610951565b6040516103e39190611e8b565b60405180910390f35b61040660048036038101906104019190612427565b610963565b005b610422600480360381019061041d9190612483565b6109a5565b60405161042f9190611de0565b60405180910390f35b610452600480360381019061044d9190612135565b610a39565b60405161045f9190611fe7565b60405180910390f35b610482600480360381019061047d9190612135565b610a82565b005b600061048f82610b08565b9050919050565b6060600080546104a5906124f2565b80601f01602080910402602001604051908101604052809291908181526020018280546104d1906124f2565b801561051e5780601f106104f35761010080835404028352916020019161051e565b820191906000526020600020905b81548152906001019060200180831161050157829003601f168201915b5050505050905090565b600061053382610b69565b5061053d82610bf1565b9050919050565b6105568282610551610c2e565b610c36565b5050565b6000600a54905090565b600073ffffffffffffffffffffffffffffffffffffffff168273ffffffffffffffffffffffffffffffffffffffff16036105d65760006040517f64a0ae920000000000000000000000000000000000000000000000000000000081526004016105cd9190611f51565b60405180910390fd5b60006105ea83836105e5610c2e565b610c48565b90508373ffffffffffffffffffffffffffffffffffffffff168173ffffffffffffffffffffffffffffffffffffffff1614610660578382826040517f64283d7b00000000000000000000000000000000000000000000000000000000815260040161065793929190612523565b60405180910390fd5b50505050565b606060088054806020026020016040519081016040528092919081815260200182805480156106ea57602002820191906000526020600020905b8160009054906101000a900473ffffffffffffffffffffffffffffffffffffffff1673ffffffffffffffffffffffffffffffffffffffff16815260200190600101908083116106a0575b5050505050905090565b61070f83838360405180602001604052806000815250610934565b505050565b6000600660009054906101000a900460ff16905090565b600061073682610b69565b9050919050565b60008073ffffffffffffffffffffffffffffffffffffffff168273ffffffffffffffffffffffffffffffffffffffff16036107b05760006040517f89c62b640000000000000000000000000000000000000000000000000000000081526004016107a79190611f51565b60405180910390fd5b600360008373ffffffffffffffffffffffffffffffffffffffff1673ffffffffffffffffffffffffffffffffffffffff168152602001908152602001600020549050919050565b6107ff610e62565b6108096000610ee9565b565b60096020528060005260406000206000915090505481565b6008818154811061083357600080fd5b906000526020600020016000915054906101000a900473ffffffffffffffffffffffffffffffffffffffff1681565b6000600660019054906101000a900473ffffffffffffffffffffffffffffffffffffffff16905090565b60606001805461089b906124f2565b80601f01602080910402602001604051908101604052809291908181526020018280546108c7906124f2565b80156109145780601f106108e957610100808354040283529160200191610914565b820191906000526020600020905b8154815290600101906020018083116108f757829003601f168201915b5050505050905090565b610930610929610c2e565b8383610faf565b5050565b61093f848484610564565b61094b8484848461111e565b50505050565b606061095c826112d5565b9050919050565b61096b6113e8565b6000600a54905061097c8382611429565b6109868183611447565b6001600a60008282546109999190612589565b92505081905550505050565b6000600560008473ffffffffffffffffffffffffffffffffffffffff1673ffffffffffffffffffffffffffffffffffffffff16815260200190815260200160002060008373ffffffffffffffffffffffffffffffffffffffff1673ffffffffffffffffffffffffffffffffffffffff16815260200190815260200160002060009054906101000a900460ff16905092915050565b6000600960008373ffffffffffffffffffffffffffffffffffffffff1673ffffffffffffffffffffffffffffffffffffffff168152602001908152602001600020549050919050565b610a8a610e62565b600073ffffffffffffffffffffffffffffffffffffffff168173ffffffffffffffffffffffffffffffffffffffff1603610afc5760006040517f1e4fbdf7000000000000000000000000000000000000000000000000000000008152600401610af39190611f51565b60405180910390fd5b610b0581610ee9565b50565b6000634906490660e01b7bffffffffffffffffffffffffffffffffffffffffffffffffffffffff1916827bffffffffffffffffffffffffffffffffffffffffffffffffffffffff19161480610b625750610b61826114a3565b5b9050919050565b600080610b7583611585565b9050600073ffffffffffffffffffffffffffffffffffffffff168173ffffffffffffffffffffffffffffffffffffffff1603610be857826040517f7e273289000000000000000000000000000000000000000000000000000000008152600401610bdf9190611fe7565b60405180910390fd5b80915050919050565b60006004600083815260200190815260200160002060009054906101000a900473ffffffffffffffffffffffffffffffffffffffff169050919050565b600033905090565b610c4383838360016115c2565b505050565b600080610c5484611585565b9050600073ffffffffffffffffffffffffffffffffffffffff168373ffffffffffffffffffffffffffffffffffffffff1614610c9657610c95818486611787565b5b600073ffffffffffffffffffffffffffffffffffffffff168173ffffffffffffffffffffffffffffffffffffffff1614610d2757610cd86000856000806115c2565b6001600360008373ffffffffffffffffffffffffffffffffffffffff1673ffffffffffffffffffffffffffffffffffffffff168152602001908152602001600020600082825403925050819055505b600073ffffffffffffffffffffffffffffffffffffffff168573ffffffffffffffffffffffffffffffffffffffff1614610daa576001600360008773ffffffffffffffffffffffffffffffffffffffff1673ffffffffffffffffffffffffffffffffffffffff168152602001908152602001600020600082825401925050819055505b846002600086815260200190815260200160002060006101000a81548173ffffffffffffffffffffffffffffffffffffffff021916908373ffffffffffffffffffffffffffffffffffffffff160217905550838573ffffffffffffffffffffffffffffffffffffffff168273ffffffffffffffffffffffffffffffffffffffff167fddf252ad1be2c89b69c2b068fc378daa952ba7f163c4a11628f55a4df523b3ef60405160405180910390a4809150509392505050565b610e6a610c2e565b73ffffffffffffffffffffffffffffffffffffffff16610e88610862565b73ffffffffffffffffffffffffffffffffffffffff1614610ee757610eab610c2e565b6040517f118cdaa7000000000000000000000000000000000000000000000000000000008152600401610ede9190611f51565b60405180910390fd5b565b6000600660019054906101000a900473ffffffffffffffffffffffffffffffffffffffff16905081600660016101000a81548173ffffffffffffffffffffffffffffffffffffffff021916908373ffffffffffffffffffffffffffffffffffffffff1602179055508173ffffffffffffffffffffffffffffffffffffffff168173ffffffffffffffffffffffffffffffffffffffff167f8be0079c531659141344cd1fd0a4f28419497f9722a3daafe3b4186f6b6457e060405160405180910390a35050565b600073ffffffffffffffffffffffffffffffffffffffff168273ffffffffffffffffffffffffffffffffffffffff160361102057816040517f5b08ba180000000000000000000000000000000000000000000000000000000081526004016110179190611f51565b60405180910390fd5b80600560008573ffffffffffffffffffffffffffffffffffffffff1673ffffffffffffffffffffffffffffffffffffffff16815260200190815260200160002060008473ffffffffffffffffffffffffffffffffffffffff1673ffffffffffffffffffffffffffffffffffffffff16815260200190815260200160002060006101000a81548160ff0219169083151502179055508173ffffffffffffffffffffffffffffffffffffffff168373ffffffffffffffffffffffffffffffffffffffff167f17307eab39ab6107e8899845ad3d59bd9653f200f220920489ca2b5937696c31836040516111119190611de0565b60405180910390a3505050565b60008373ffffffffffffffffffffffffffffffffffffffff163b11156112cf578273ffffffffffffffffffffffffffffffffffffffff1663150b7a02611162610c2e565b8685856040518563ffffffff1660e01b81526004016111849493929190612612565b6020604051808303816000875af19250505080156111c057506040513d601f19601f820116820180604052508101906111bd9190612673565b60015b611244573d80600081146111f0576040519150601f19603f3d011682016040523d82523d6000602084013e6111f5565b606091505b50600081510361123c57836040517f64a0ae920000000000000000000000000000000000000000000000000000000081526004016112339190611f51565b60405180910390fd5b805181602001fd5b63150b7a0260e01b7bffffffffffffffffffffffffffffffffffffffffffffffffffffffff1916817bffffffffffffffffffffffffffffffffffffffffffffffffffffffff1916146112cd57836040517f64a0ae920000000000000000000000000000000000000000000000000000000081526004016112c49190611f51565b60405180910390fd5b505b50505050565b60606112e082610b69565b506000600760008481526020019081526020016000208054611301906124f2565b80601f016020809104026020016040519081016040528092919081815260200182805461132d906124f2565b801561137a5780601f1061134f5761010080835404028352916020019161137a565b820191906000526020600020905b81548152906001019060200180831161135d57829003601f168201915b50505050509050600061138b61184b565b905060008151036113a05781925050506113e3565b6000825111156113d55780826040516020016113bd9291906126dc565b604051602081830303815290604052925050506113e3565b6113de84611862565b925050505b919050565b6113f0610714565b15611427576040517fd93c066500000000000000000000000000000000000000000000000000000000815260040160405180910390fd5b565b6114438282604051806020016040528060008152506118cb565b5050565b8060076000848152602001908152602001600020908161146791906128ac565b507ff8e1a15aba9398e019f0b49df1a4fde98ee17ae345cb5f6b5e2c27f5033e8ce7826040516114979190611fe7565b60405180910390a15050565b60007f80ac58cd000000000000000000000000000000000000000000000000000000007bffffffffffffffffffffffffffffffffffffffffffffffffffffffff1916827bffffffffffffffffffffffffffffffffffffffffffffffffffffffff1916148061156e57507f5b5e139f000000000000000000000000000000000000000000000000000000007bffffffffffffffffffffffffffffffffffffffffffffffffffffffff1916827bffffffffffffffffffffffffffffffffffffffffffffffffffffffff1916145b8061157e575061157d826118e7565b5b9050919050565b60006002600083815260200190815260200160002060009054906101000a900473ffffffffffffffffffffffffffffffffffffffff169050919050565b80806115fb5750600073ffffffffffffffffffffffffffffffffffffffff168273ffffffffffffffffffffffffffffffffffffffff1614155b1561172f57600061160b84610b69565b9050600073ffffffffffffffffffffffffffffffffffffffff168373ffffffffffffffffffffffffffffffffffffffff161415801561167657508273ffffffffffffffffffffffffffffffffffffffff168173ffffffffffffffffffffffffffffffffffffffff1614155b8015611689575061168781846109a5565b155b156116cb57826040517fa9fbf51f0000000000000000000000000000000000000000000000000000000081526004016116c29190611f51565b60405180910390fd5b811561172d57838573ffffffffffffffffffffffffffffffffffffffff168273ffffffffffffffffffffffffffffffffffffffff167f8c5be1e5ebec7d5bd14f71427d1e84f3dd0314c0f7b2291e5b200ac8c7c3b92560405160405180910390a45b505b836004600085815260200190815260200160002060006101000a81548173ffffffffffffffffffffffffffffffffffffffff021916908373ffffffffffffffffffffffffffffffffffffffff16021790555050505050565b611792838383611951565b61184657600073ffffffffffffffffffffffffffffffffffffffff168373ffffffffffffffffffffffffffffffffffffffff160361180757806040517f7e2732890000000000000000000000000000000000000000000000000000000081526004016117fe9190611fe7565b60405180910390fd5b81816040517f177e802f00000000000000000000000000000000000000000000000000000000815260040161183d92919061297e565b60405180910390fd5b505050565b606060405180602001604052806000815250905090565b606061186d82610b69565b50600061187861184b565b9050600081511161189857604051806020016040528060008152506118c3565b806118a284611a12565b6040516020016118b39291906126dc565b6040516020818303038152906040525b915050919050565b6118d58383611ae0565b6118e2600084848461111e565b505050565b60007f01ffc9a7000000000000000000000000000000000000000000000000000000007bffffffffffffffffffffffffffffffffffffffffffffffffffffffff1916827bffffffffffffffffffffffffffffffffffffffffffffffffffffffff1916149050919050565b60008073ffffffffffffffffffffffffffffffffffffffff168373ffffffffffffffffffffffffffffffffffffffff1614158015611a0957508273ffffffffffffffffffffffffffffffffffffffff168473ffffffffffffffffffffffffffffffffffffffff1614806119ca57506119c984846109a5565b5b80611a0857508273ffffffffffffffffffffffffffffffffffffffff166119f083610bf1565b73ffffffffffffffffffffffffffffffffffffffff16145b5b90509392505050565b606060006001611a2184611bd9565b01905060008167ffffffffffffffff811115611a4057611a3f6121d8565b5b6040519080825280601f01601f191660200182016040528015611a725781602001600182028036833780820191505090505b509050600082602001820190505b600115611ad5578080600190039150507f3031323334353637383961626364656600000000000000000000000000000000600a86061a8153600a8581611ac957611ac86129a7565b5b04945060008503611a80575b819350505050919050565b600073ffffffffffffffffffffffffffffffffffffffff168273ffffffffffffffffffffffffffffffffffffffff1603611b525760006040517f64a0ae92000000000000000000000000000000000000000000000000000000008152600401611b499190611f51565b60405180910390fd5b6000611b6083836000610c48565b9050600073ffffffffffffffffffffffffffffffffffffffff168173ffffffffffffffffffffffffffffffffffffffff1614611bd45760006040517f73c6ac6e000000000000000000000000000000000000000000000000000000008152600401611bcb9190611f51565b60405180910390fd5b505050565b600080600090507a184f03e93ff9f4daa797ed6e38ed64bf6a1f0100000000000000008310611c37577a184f03e93ff9f4daa797ed6e38ed64bf6a1f0100000000000000008381611c2d57611c2c6129a7565b5b0492506040810190505b6d04ee2d6d415b85acef81000000008310611c74576d04ee2d6d415b85acef81000000008381611c6a57611c696129a7565b5b0492506020810190505b662386f26fc100008310611ca357662386f26fc100008381611c9957611c986129a7565b5b0492506010810190505b6305f5e1008310611ccc576305f5e1008381611cc257611cc16129a7565b5b0492506008810190505b6127108310611cf1576127108381611ce757611ce66129a7565b5b0492506004810190505b60648310611d145760648381611d0a57611d096129a7565b5b0492506002810190505b600a8310611d23576001810190505b80915050919050565b6000604051905090565b600080fd5b600080fd5b60007fffffffff0000000000000000000000000000000000000000000000000000000082169050919050565b611d7581611d40565b8114611d8057600080fd5b50565b600081359050611d9281611d6c565b92915050565b600060208284031215611dae57611dad611d36565b5b6000611dbc84828501611d83565b91505092915050565b60008115159050919050565b611dda81611dc5565b82525050565b6000602082019050611df56000830184611dd1565b92915050565b600081519050919050565b600082825260208201905092915050565b60005b83811015611e35578082015181840152602081019050611e1a565b60008484015250505050565b6000601f19601f8301169050919050565b6000611e5d82611dfb565b611e678185611e06565b9350611e77818560208601611e17565b611e8081611e41565b840191505092915050565b60006020820190508181036000830152611ea58184611e52565b905092915050565b6000819050919050565b611ec081611ead565b8114611ecb57600080fd5b50565b600081359050611edd81611eb7565b92915050565b600060208284031215611ef957611ef8611d36565b5b6000611f0784828501611ece565b91505092915050565b600073ffffffffffffffffffffffffffffffffffffffff82169050919050565b6000611f3b82611f10565b9050919050565b611f4b81611f30565b82525050565b6000602082019050611f666000830184611f42565b92915050565b611f7581611f30565b8114611f8057600080fd5b50565b600081359050611f9281611f6c565b92915050565b60008060408385031215611faf57611fae611d36565b5b6000611fbd85828601611f83565b9250506020611fce85828601611ece565b9150509250929050565b611fe181611ead565b82525050565b6000602082019050611ffc6000830184611fd8565b92915050565b60008060006060848603121561201b5761201a611d36565b5b600061202986828701611f83565b935050602061203a86828701611f83565b925050604061204b86828701611ece565b9150509250925092565b600081519050919050565b600082825260208201905092915050565b6000819050602082019050919050565b61208a81611f30565b82525050565b600061209c8383612081565b60208301905092915050565b6000602082019050919050565b60006120c082612055565b6120ca8185612060565b93506120d583612071565b8060005b838110156121065781516120ed8882612090565b97506120f8836120a8565b9250506001810190506120d9565b5085935050505092915050565b6000602082019050818103600083015261212d81846120b5565b905092915050565b60006020828403121561214b5761214a611d36565b5b600061215984828501611f83565b91505092915050565b61216b81611dc5565b811461217657600080fd5b50565b60008135905061218881612162565b92915050565b600080604083850312156121a5576121a4611d36565b5b60006121b385828601611f83565b92505060206121c485828601612179565b9150509250929050565b600080fd5b600080fd5b7f4e487b7100000000000000000000000000000000000000000000000000000000600052604160045260246000fd5b61221082611e41565b810181811067ffffffffffffffff8211171561222f5761222e6121d8565b5b80604052505050565b6000612242611d2c565b905061224e8282612207565b919050565b600067ffffffffffffffff82111561226e5761226d6121d8565b5b61227782611e41565b9050602081019050919050565b82818337600083830152505050565b60006122a66122a184612253565b612238565b9050828152602081018484840111156122c2576122c16121d3565b5b6122cd848285612284565b509392505050565b600082601f8301126122ea576122e96121ce565b5b81356122fa848260208601612293565b91505092915050565b6000806000806080858703121561231d5761231c611d36565b5b600061232b87828801611f83565b945050602061233c87828801611f83565b935050604061234d87828801611ece565b925050606085013567ffffffffffffffff81111561236e5761236d611d3b565b5b61237a878288016122d5565b91505092959194509250565b600067ffffffffffffffff8211156123a1576123a06121d8565b5b6123aa82611e41565b9050602081019050919050565b60006123ca6123c584612386565b612238565b9050828152602081018484840111156123e6576123e56121d3565b5b6123f1848285612284565b509392505050565b600082601f83011261240e5761240d6121ce565b5b813561241e8482602086016123b7565b91505092915050565b6000806040838503121561243e5761243d611d36565b5b600061244c85828601611f83565b925050602083013567ffffffffffffffff81111561246d5761246c611d3b565b5b612479858286016123f9565b9150509250929050565b6000806040838503121561249a57612499611d36565b5b60006124a885828601611f83565b92505060206124b985828601611f83565b9150509250929050565b7f4e487b7100000000000000000000000000000000000000000000000000000000600052602260045260246000fd5b6000600282049050600182168061250a57607f821691505b60208210810361251d5761251c6124c3565b5b50919050565b60006060820190506125386000830186611f42565b6125456020830185611fd8565b6125526040830184611f42565b949350505050565b7f4e487b7100000000000000000000000000000000000000000000000000000000600052601160045260246000fd5b600061259482611ead565b915061259f83611ead565b92508282019050808211156125b7576125b661255a565b5b92915050565b600081519050919050565b600082825260208201905092915050565b60006125e4826125bd565b6125ee81856125c8565b93506125fe818560208601611e17565b61260781611e41565b840191505092915050565b60006080820190506126276000830187611f42565b6126346020830186611f42565b6126416040830185611fd8565b818103606083015261265381846125d9565b905095945050505050565b60008151905061266d81611d6c565b92915050565b60006020828403121561268957612688611d36565b5b60006126978482850161265e565b91505092915050565b600081905092915050565b60006126b682611dfb565b6126c081856126a0565b93506126d0818560208601611e17565b80840191505092915050565b60006126e882856126ab565b91506126f482846126ab565b91508190509392505050565b60008190508160005260206000209050919050565b60006020601f8301049050919050565b600082821b905092915050565b6000600883026127627fffffffffffffffffffffffffffffffffffffffffffffffffffffffffffffffff82612725565b61276c8683612725565b95508019841693508086168417925050509392505050565b6000819050919050565b60006127a96127a461279f84611ead565b612784565b611ead565b9050919050565b6000819050919050565b6127c38361278e565b6127d76127cf826127b0565b848454612732565b825550505050565b600090565b6127ec6127df565b6127f78184846127ba565b505050565b5b8181101561281b576128106000826127e4565b6001810190506127fd565b5050565b601f8211156128605761283181612700565b61283a84612715565b81016020851015612849578190505b61285d61285585612715565b8301826127fc565b50505b505050565b600082821c905092915050565b600061288360001984600802612865565b1980831691505092915050565b600061289c8383612872565b9150826002028217905092915050565b6128b582611dfb565b67ffffffffffffffff8111156128ce576128cd6121d8565b5b6128d882546124f2565b6128e382828561281f565b600060209050601f8311600181146129165760008415612904578287015190505b61290e8582612890565b865550612976565b601f19841661292486612700565b60005b8281101561294c57848901518255600182019150602085019450602081019050612927565b868310156129695784890151612965601f891682612872565b8355505b6001600288020188555050505b505050505050565b60006040820190506129936000830185611f42565b6129a06020830184611fd8565b9392505050565b7f4e487b7100000000000000000000000000000000000000000000000000000000600052601260045260246000fdfea264697066735822122099eb869568aeda68f5a6c936a3d0a207d9066b44240cc48b7c990076cf4beb0d64736f6c63430008180033",
  "linkReferences": {},
  "deployedLinkReferences": {}
}