{
  "_format": "hh-sol-artifact-1",
  "contractName": "MERNS",
  "sourceName": "contracts/PortfolioNFT.sol",
  "abi": [
    {
      "inputs": [],
      "stateMutability": "nonpayable",
      "type": "constructor"
    },
    {
      "inputs": [
        {
          "internalType": "address",
          "name": "sender",
          "type": "address"
        },
        {
          "internalType": "uint256",
          "name": "tokenId",
          "type": "uint256"
        },
        {
          "internalType": "address",
          "name": "owner",
          "type": "address"
        }
      ],
      "name": "ERC721IncorrectOwner",
      "type": "error"
    },
    {
      "inputs": [
        {
          "internalType": "address",
          "name": "operator",
          "type": "address"
        },
        {
          "internalType": "uint256",
          "name": "tokenId",
          "type": "uint256"
        }
      ],
      "name": "ERC721InsufficientApproval",
      "type": "error"
    },
    {
      "inputs": [
        {
          "internalType": "address",
          "name": "approver",
          "type": "address"
        }
      ],
      "name": "ERC721InvalidApprover",
      "type": "error"
    },
    {
      "inputs": [
        {
          "internalType": "address",
          "name": "operator",
          "type": "address"
        }
      ],
      "name": "ERC721InvalidOperator",
      "type": "error"
    },
    {
      "inputs": [
        {
          "internalType": "address",
          "name": "owner",
          "type": "address"
        }
      ],
      "name": "ERC721InvalidOwner",
      "type": "error"
    },
    {
      "inputs": [
        {
          "internalType": "address",
          "name": "receiver",
          "type": "address"
        }
      ],
      "name": "ERC721InvalidReceiver",
      "type": "error"
    },
    {
      "inputs": [
        {
          "internalType": "address",
          "name": "sender",
          "type": "address"
        }
      ],
      "name": "ERC721InvalidSender",
      "type": "error"
    },
    {
      "inputs": [
        {
          "internalType": "uint256",
          "name": "tokenId",
          "type": "uint256"
        }
      ],
      "name": "ERC721NonexistentToken",
      "type": "error"
    },
    {
      "inputs": [],
      "name": "EnforcedPause",
      "type": "error"
    },
    {
      "inputs": [],
      "name": "ExpectedPause",
      "type": "error"
    },
    {
      "anonymous": false,
      "inputs": [
        {
          "indexed": true,
          "internalType": "address",
          "name": "owner",
          "type": "address"
        },
        {
          "indexed": true,
          "internalType": "address",
          "name": "approved",
          "type": "address"
        },
        {
          "indexed": true,
          "internalType": "uint256",
          "name": "tokenId",
          "type": "uint256"
        }
      ],
      "name": "Approval",
      "type": "event"
    },
    {
      "anonymous": false,
      "inputs": [
        {
          "indexed": true,
          "internalType": "address",
          "name": "owner",
          "type": "address"
        },
        {
          "indexed": true,
          "internalType": "address",
          "name": "operator",
          "type": "address"
        },
        {
          "indexed": false,
          "internalType": "bool",
          "name": "approved",
          "type": "bool"
        }
      ],
      "name": "ApprovalForAll",
      "type": "event"
    },
    {
      "anonymous": false,
      "inputs": [
        {
          "indexed": false,
          "internalType": "address",
          "name": "account",
          "type": "address"
        }
      ],
      "name": "Paused",
      "type": "event"
    },
    {
      "anonymous": false,
      "inputs": [
        {
          "indexed": true,
          "internalType": "address",
          "name": "from",
          "type": "address"
        },
        {
          "indexed": true,
          "internalType": "address",
          "name": "to",
          "type": "address"
        },
        {
          "indexed": true,
          "internalType": "uint256",
          "name": "tokenId",
          "type": "uint256"
        }
      ],
      "name": "Transfer",
      "type": "event"
    },
    {
      "anonymous": false,
      "inputs": [
        {
          "indexed": false,
          "internalType": "address",
          "name": "account",
          "type": "address"
        }
      ],
      "name": "Unpaused",
      "type": "event"
    },
    {
      "inputs": [
        {
          "internalType": "address",
          "name": "to",
          "type": "address"
        },
        {
          "internalType": "uint256",
          "name": "tokenId",
          "type": "uint256"
        }
      ],
      "name": "approve",
      "outputs": [],
      "stateMutability": "nonpayable",
      "type": "function"
    },
    {
      "inputs": [
        {
          "internalType": "address",
          "name": "owner",
          "type": "address"
        }
      ],
      "name": "balanceOf",
      "outputs": [
        {
          "internalType": "uint256",
          "name": "",
          "type": "uint256"
        }
      ],
      "stateMutability": "view",
      "type": "function"
    },
    {
      "inputs": [
        {
          "internalType": "uint256",
          "name": "tokenId",
          "type": "uint256"
        }
      ],
      "name": "getApproved",
      "outputs": [
        {
          "internalType": "address",
          "name": "",
          "type": "address"
        }
      ],
      "stateMutability": "view",
      "type": "function"
    },
    {
      "inputs": [
        {
          "internalType": "address",
          "name": "owner",
          "type": "address"
        },
        {
          "internalType": "address",
          "name": "operator",
          "type": "address"
        }
      ],
      "name": "isApprovedForAll",
      "outputs": [
        {
          "internalType": "bool",
          "name": "",
          "type": "bool"
        }
      ],
      "stateMutability": "view",
      "type": "function"
    },
    {
      "inputs": [],
      "name": "name",
      "outputs": [
        {
          "internalType": "string",
          "name": "",
          "type": "string"
        }
      ],
      "stateMutability": "view",
      "type": "function"
    },
    {
      "inputs": [],
      "name": "owner",
      "outputs": [
        {
          "internalType": "address",
          "name": "",
          "type": "address"
        }
      ],
      "stateMutability": "view",
      "type": "function"
    },
    {
      "inputs": [
        {
          "internalType": "uint256",
          "name": "tokenId",
          "type": "uint256"
        }
      ],
      "name": "ownerOf",
      "outputs": [
        {
          "internalType": "address",
          "name": "",
          "type": "address"
        }
      ],
      "stateMutability": "view",
      "type": "function"
    },
    {
      "inputs": [],
      "name": "paused",
      "outputs": [
        {
          "internalType": "bool",
          "name": "",
          "type": "bool"
        }
      ],
      "stateMutability": "view",
      "type": "function"
    },
    {
      "inputs": [
        {
          "internalType": "address",
          "name": "_receiver",
          "type": "address"
        }
      ],
      "name": "safeMint",
      "outputs": [],
      "stateMutability": "nonpayable",
      "type": "function"
    },
    {
      "inputs": [
        {
          "internalType": "address",
          "name": "from",
          "type": "address"
        },
        {
          "internalType": "address",
          "name": "to",
          "type": "address"
        },
        {
          "internalType": "uint256",
          "name": "tokenId",
          "type": "uint256"
        }
      ],
      "name": "safeTransferFrom",
      "outputs": [],
      "stateMutability": "nonpayable",
      "type": "function"
    },
    {
      "inputs": [
        {
          "internalType": "address",
          "name": "from",
          "type": "address"
        },
        {
          "internalType": "address",
          "name": "to",
          "type": "address"
        },
        {
          "internalType": "uint256",
          "name": "tokenId",
          "type": "uint256"
        },
        {
          "internalType": "bytes",
          "name": "data",
          "type": "bytes"
        }
      ],
      "name": "safeTransferFrom",
      "outputs": [],
      "stateMutability": "nonpayable",
      "type": "function"
    },
    {
      "inputs": [
        {
          "internalType": "address",
          "name": "operator",
          "type": "address"
        },
        {
          "internalType": "bool",
          "name": "approved",
          "type": "bool"
        }
      ],
      "name": "setApprovalForAll",
      "outputs": [],
      "stateMutability": "nonpayable",
      "type": "function"
    },
    {
      "inputs": [
        {
          "internalType": "bytes4",
          "name": "interfaceId",
          "type": "bytes4"
        }
      ],
      "name": "supportsInterface",
      "outputs": [
        {
          "internalType": "bool",
          "name": "",
          "type": "bool"
        }
      ],
      "stateMutability": "view",
      "type": "function"
    },
    {
      "inputs": [],
      "name": "symbol",
      "outputs": [
        {
          "internalType": "string",
          "name": "",
          "type": "string"
        }
      ],
      "stateMutability": "view",
      "type": "function"
    },
    {
      "inputs": [
        {
          "internalType": "uint256",
          "name": "tokenId",
          "type": "uint256"
        }
      ],
      "name": "tokenURI",
      "outputs": [
        {
          "internalType": "string",
          "name": "",
          "type": "string"
        }
      ],
      "stateMutability": "view",
      "type": "function"
    },
    {
      "inputs": [],
      "name": "totalSupply",
      "outputs": [
        {
          "internalType": "uint256",
          "name": "",
          "type": "uint256"
        }
      ],
      "stateMutability": "view",
      "type": "function"
    },
    {
      "inputs": [
        {
          "internalType": "address",
          "name": "from",
          "type": "address"
        },
        {
          "internalType": "address",
          "name": "to",
          "type": "address"
        },
        {
          "internalType": "uint256",
          "name": "tokenId",
          "type": "uint256"
        }
      ],
      "name": "transferFrom",
      "outputs": [],
      "stateMutability": "nonpayable",
      "type": "function"
    }
  ],
  "bytecode": "0x60806040523480156200001157600080fd5b506040518060400160405280601581526020017f536562692773204d45524e53204d6f6e737465727300000000000000000000008152506040518060400160405280600581526020017f4d45524e5300000000000000000000000000000000000000000000000000000081525081600090816200008f919062000380565b508060019081620000a1919062000380565b5050506000600660006101000a81548160ff02191690831515021790555033600660016101000a81548173ffffffffffffffffffffffffffffffffffffffff021916908373ffffffffffffffffffffffffffffffffffffffff16021790555062000467565b600081519050919050565b7f4e487b7100000000000000000000000000000000000000000000000000000000600052604160045260246000fd5b7f4e487b7100000000000000000000000000000000000000000000000000000000600052602260045260246000fd5b600060028204905060018216806200018857607f821691505b6020821081036200019e576200019d62000140565b5b50919050565b60008190508160005260206000209050919050565b60006020601f8301049050919050565b600082821b905092915050565b600060088302620002087fffffffffffffffffffffffffffffffffffffffffffffffffffffffffffffffff82620001c9565b620002148683620001c9565b95508019841693508086168417925050509392505050565b6000819050919050565b6000819050919050565b6000620002616200025b62000255846200022c565b62000236565b6200022c565b9050919050565b6000819050919050565b6200027d8362000240565b620002956200028c8262000268565b848454620001d6565b825550505050565b600090565b620002ac6200029d565b620002b981848462000272565b505050565b5b81811015620002e157620002d5600082620002a2565b600181019050620002bf565b5050565b601f8211156200033057620002fa81620001a4565b6200030584620001b9565b8101602085101562000315578190505b6200032d6200032485620001b9565b830182620002be565b50505b505050565b600082821c905092915050565b6000620003556000198460080262000335565b1980831691505092915050565b600062000370838362000342565b9150826002028217905092915050565b6200038b8262000106565b67ffffffffffffffff811115620003a757620003a662000111565b5b620003b382546200016f565b620003c0828285620002e5565b600060209050601f831160018114620003f85760008415620003e3578287015190505b620003ef858262000362565b8655506200045f565b601f1984166200040886620001a4565b60005b8281101562000432578489015182556001820191506020850194506020810190506200040b565b868310156200045257848901516200044e601f89168262000342565b8355505b6001600288020188555050505b505050505050565b61205c80620004776000396000f3fe608060405234801561001057600080fd5b506004361061010b5760003560e01c80635c975abb116100a257806395d89b411161007157806395d89b41146102b8578063a22cb465146102d6578063b88d4fde146102f2578063c87b56dd1461030e578063e985e9c51461033e5761010b565b80635c975abb1461021c5780636352211e1461023a57806370a082311461026a5780638da5cb5b1461029a5761010b565b806318160ddd116100de57806318160ddd146101aa57806323b872dd146101c857806340d097c3146101e457806342842e0e146102005761010b565b806301ffc9a71461011057806306fdde0314610140578063081812fc1461015e578063095ea7b31461018e575b600080fd5b61012a600480360381019061012591906117b1565b61036e565b60405161013791906117f9565b60405180910390f35b610148610450565b60405161015591906118a4565b60405180910390f35b610178600480360381019061017391906118fc565b6104e2565b604051610185919061196a565b60405180910390f35b6101a860048036038101906101a391906119b1565b6104fe565b005b6101b2610514565b6040516101bf9190611a00565b60405180910390f35b6101e260048036038101906101dd9190611a1b565b61051e565b005b6101fe60048036038101906101f99190611a6e565b610620565b005b61021a60048036038101906102159190611a1b565b6106df565b005b6102246106ff565b60405161023191906117f9565b60405180910390f35b610254600480360381019061024f91906118fc565b610716565b604051610261919061196a565b60405180910390f35b610284600480360381019061027f9190611a6e565b610728565b6040516102919190611a00565b60405180910390f35b6102a26107e2565b6040516102af919061196a565b60405180910390f35b6102c0610808565b6040516102cd91906118a4565b60405180910390f35b6102f060048036038101906102eb9190611ac7565b61089a565b005b61030c60048036038101906103079190611c3c565b6108b0565b005b610328600480360381019061032391906118fc565b6108cd565b60405161033591906118a4565b60405180910390f35b61035860048036038101906103539190611cbf565b610936565b60405161036591906117f9565b60405180910390f35b60007f80ac58cd000000000000000000000000000000000000000000000000000000007bffffffffffffffffffffffffffffffffffffffffffffffffffffffff1916827bffffffffffffffffffffffffffffffffffffffffffffffffffffffff1916148061043957507f5b5e139f000000000000000000000000000000000000000000000000000000007bffffffffffffffffffffffffffffffffffffffffffffffffffffffff1916827bffffffffffffffffffffffffffffffffffffffffffffffffffffffff1916145b806104495750610448826109ca565b5b9050919050565b60606000805461045f90611d2e565b80601f016020809104026020016040519081016040528092919081815260200182805461048b90611d2e565b80156104d85780601f106104ad576101008083540402835291602001916104d8565b820191906000526020600020905b8154815290600101906020018083116104bb57829003601f168201915b5050505050905090565b60006104ed82610a34565b506104f782610abc565b9050919050565b610510828261050b610af9565b610b01565b5050565b6000600754905090565b600073ffffffffffffffffffffffffffffffffffffffff168273ffffffffffffffffffffffffffffffffffffffff16036105905760006040517f64a0ae92000000000000000000000000000000000000000000000000000000008152600401610587919061196a565b60405180910390fd5b60006105a4838361059f610af9565b610b13565b90508373ffffffffffffffffffffffffffffffffffffffff168173ffffffffffffffffffffffffffffffffffffffff161461061a578382826040517f64283d7b00000000000000000000000000000000000000000000000000000000815260040161061193929190611d5f565b60405180910390fd5b50505050565b600660019054906101000a900473ffffffffffffffffffffffffffffffffffffffff1673ffffffffffffffffffffffffffffffffffffffff163373ffffffffffffffffffffffffffffffffffffffff16146106b0576040517f08c379a00000000000000000000000000000000000000000000000000000000081526004016106a790611e08565b60405180910390fd5b600060075490506106c18282610d2d565b6001600760008282546106d49190611e57565b925050819055505050565b6106fa838383604051806020016040528060008152506108b0565b505050565b6000600660009054906101000a900460ff16905090565b600061072182610a34565b9050919050565b60008073ffffffffffffffffffffffffffffffffffffffff168273ffffffffffffffffffffffffffffffffffffffff160361079b5760006040517f89c62b64000000000000000000000000000000000000000000000000000000008152600401610792919061196a565b60405180910390fd5b600360008373ffffffffffffffffffffffffffffffffffffffff1673ffffffffffffffffffffffffffffffffffffffff168152602001908152602001600020549050919050565b600660019054906101000a900473ffffffffffffffffffffffffffffffffffffffff1681565b60606001805461081790611d2e565b80601f016020809104026020016040519081016040528092919081815260200182805461084390611d2e565b80156108905780601f1061086557610100808354040283529160200191610890565b820191906000526020600020905b81548152906001019060200180831161087357829003601f168201915b5050505050905090565b6108ac6108a5610af9565b8383610d4b565b5050565b6108bb84848461051e565b6108c784848484610eba565b50505050565b60606108d882610a34565b5060006108e3611071565b90506000815111610903576040518060200160405280600081525061092e565b8061090d84611088565b60405160200161091e929190611ec7565b6040516020818303038152906040525b915050919050565b6000600560008473ffffffffffffffffffffffffffffffffffffffff1673ffffffffffffffffffffffffffffffffffffffff16815260200190815260200160002060008373ffffffffffffffffffffffffffffffffffffffff1673ffffffffffffffffffffffffffffffffffffffff16815260200190815260200160002060009054906101000a900460ff16905092915050565b60007f01ffc9a7000000000000000000000000000000000000000000000000000000007bffffffffffffffffffffffffffffffffffffffffffffffffffffffff1916827bffffffffffffffffffffffffffffffffffffffffffffffffffffffff1916149050919050565b600080610a4083611156565b9050600073ffffffffffffffffffffffffffffffffffffffff168173ffffffffffffffffffffffffffffffffffffffff1603610ab357826040517f7e273289000000000000000000000000000000000000000000000000000000008152600401610aaa9190611a00565b60405180910390fd5b80915050919050565b60006004600083815260200190815260200160002060009054906101000a900473ffffffffffffffffffffffffffffffffffffffff169050919050565b600033905090565b610b0e8383836001611193565b505050565b600080610b1f84611156565b9050600073ffffffffffffffffffffffffffffffffffffffff168373ffffffffffffffffffffffffffffffffffffffff1614610b6157610b60818486611358565b5b600073ffffffffffffffffffffffffffffffffffffffff168173ffffffffffffffffffffffffffffffffffffffff1614610bf257610ba3600085600080611193565b6001600360008373ffffffffffffffffffffffffffffffffffffffff1673ffffffffffffffffffffffffffffffffffffffff168152602001908152602001600020600082825403925050819055505b600073ffffffffffffffffffffffffffffffffffffffff168573ffffffffffffffffffffffffffffffffffffffff1614610c75576001600360008773ffffffffffffffffffffffffffffffffffffffff1673ffffffffffffffffffffffffffffffffffffffff168152602001908152602001600020600082825401925050819055505b846002600086815260200190815260200160002060006101000a81548173ffffffffffffffffffffffffffffffffffffffff021916908373ffffffffffffffffffffffffffffffffffffffff160217905550838573ffffffffffffffffffffffffffffffffffffffff168273ffffffffffffffffffffffffffffffffffffffff167fddf252ad1be2c89b69c2b068fc378daa952ba7f163c4a11628f55a4df523b3ef60405160405180910390a4809150509392505050565b610d4782826040518060200160405280600081525061141c565b5050565b600073ffffffffffffffffffffffffffffffffffffffff168273ffffffffffffffffffffffffffffffffffffffff1603610dbc57816040517f5b08ba18000000000000000000000000000000000000000000000000000000008152600401610db3919061196a565b60405180910390fd5b80600560008573ffffffffffffffffffffffffffffffffffffffff1673ffffffffffffffffffffffffffffffffffffffff16815260200190815260200160002060008473ffffffffffffffffffffffffffffffffffffffff1673ffffffffffffffffffffffffffffffffffffffff16815260200190815260200160002060006101000a81548160ff0219169083151502179055508173ffffffffffffffffffffffffffffffffffffffff168373ffffffffffffffffffffffffffffffffffffffff167f17307eab39ab6107e8899845ad3d59bd9653f200f220920489ca2b5937696c3183604051610ead91906117f9565b60405180910390a3505050565b60008373ffffffffffffffffffffffffffffffffffffffff163b111561106b578273ffffffffffffffffffffffffffffffffffffffff1663150b7a02610efe610af9565b8685856040518563ffffffff1660e01b8152600401610f209493929190611f40565b6020604051808303816000875af1925050508015610f5c57506040513d601f19601f82011682018060405250810190610f599190611fa1565b60015b610fe0573d8060008114610f8c576040519150601f19603f3d011682016040523d82523d6000602084013e610f91565b606091505b506000815103610fd857836040517f64a0ae92000000000000000000000000000000000000000000000000000000008152600401610fcf919061196a565b60405180910390fd5b805181602001fd5b63150b7a0260e01b7bffffffffffffffffffffffffffffffffffffffffffffffffffffffff1916817bffffffffffffffffffffffffffffffffffffffffffffffffffffffff19161461106957836040517f64a0ae92000000000000000000000000000000000000000000000000000000008152600401611060919061196a565b60405180910390fd5b505b50505050565b606060405180602001604052806000815250905090565b60606000600161109784611438565b01905060008167ffffffffffffffff8111156110b6576110b5611b11565b5b6040519080825280601f01601f1916602001820160405280156110e85781602001600182028036833780820191505090505b509050600082602001820190505b60011561114b578080600190039150507f3031323334353637383961626364656600000000000000000000000000000000600a86061a8153600a858161113f5761113e611fce565b5b049450600085036110f6575b819350505050919050565b60006002600083815260200190815260200160002060009054906101000a900473ffffffffffffffffffffffffffffffffffffffff169050919050565b80806111cc5750600073ffffffffffffffffffffffffffffffffffffffff168273ffffffffffffffffffffffffffffffffffffffff1614155b156113005760006111dc84610a34565b9050600073ffffffffffffffffffffffffffffffffffffffff168373ffffffffffffffffffffffffffffffffffffffff161415801561124757508273ffffffffffffffffffffffffffffffffffffffff168173ffffffffffffffffffffffffffffffffffffffff1614155b801561125a57506112588184610936565b155b1561129c57826040517fa9fbf51f000000000000000000000000000000000000000000000000000000008152600401611293919061196a565b60405180910390fd5b81156112fe57838573ffffffffffffffffffffffffffffffffffffffff168273ffffffffffffffffffffffffffffffffffffffff167f8c5be1e5ebec7d5bd14f71427d1e84f3dd0314c0f7b2291e5b200ac8c7c3b92560405160405180910390a45b505b836004600085815260200190815260200160002060006101000a81548173ffffffffffffffffffffffffffffffffffffffff021916908373ffffffffffffffffffffffffffffffffffffffff16021790555050505050565b61136383838361158b565b61141757600073ffffffffffffffffffffffffffffffffffffffff168373ffffffffffffffffffffffffffffffffffffffff16036113d857806040517f7e2732890000000000000000000000000000000000000000000000000000000081526004016113cf9190611a00565b60405180910390fd5b81816040517f177e802f00000000000000000000000000000000000000000000000000000000815260040161140e929190611ffd565b60405180910390fd5b505050565b611426838361164c565b6114336000848484610eba565b505050565b600080600090507a184f03e93ff9f4daa797ed6e38ed64bf6a1f0100000000000000008310611496577a184f03e93ff9f4daa797ed6e38ed64bf6a1f010000000000000000838161148c5761148b611fce565b5b0492506040810190505b6d04ee2d6d415b85acef810000000083106114d3576d04ee2d6d415b85acef810000000083816114c9576114c8611fce565b5b0492506020810190505b662386f26fc10000831061150257662386f26fc1000083816114f8576114f7611fce565b5b0492506010810190505b6305f5e100831061152b576305f5e100838161152157611520611fce565b5b0492506008810190505b612710831061155057612710838161154657611545611fce565b5b0492506004810190505b60648310611573576064838161156957611568611fce565b5b0492506002810190505b600a8310611582576001810190505b80915050919050565b60008073ffffffffffffffffffffffffffffffffffffffff168373ffffffffffffffffffffffffffffffffffffffff161415801561164357508273ffffffffffffffffffffffffffffffffffffffff168473ffffffffffffffffffffffffffffffffffffffff16148061160457506116038484610936565b5b8061164257508273ffffffffffffffffffffffffffffffffffffffff1661162a83610abc565b73ffffffffffffffffffffffffffffffffffffffff16145b5b90509392505050565b600073ffffffffffffffffffffffffffffffffffffffff168273ffffffffffffffffffffffffffffffffffffffff16036116be5760006040517f64a0ae920000000000000000000000000000000000000000000000000000000081526004016116b5919061196a565b60405180910390fd5b60006116cc83836000610b13565b9050600073ffffffffffffffffffffffffffffffffffffffff168173ffffffffffffffffffffffffffffffffffffffff16146117405760006040517f73c6ac6e000000000000000000000000000000000000000000000000000000008152600401611737919061196a565b60405180910390fd5b505050565b6000604051905090565b600080fd5b600080fd5b60007fffffffff0000000000000000000000000000000000000000000000000000000082169050919050565b61178e81611759565b811461179957600080fd5b50565b6000813590506117ab81611785565b92915050565b6000602082840312156117c7576117c661174f565b5b60006117d58482850161179c565b91505092915050565b60008115159050919050565b6117f3816117de565b82525050565b600060208201905061180e60008301846117ea565b92915050565b600081519050919050565b600082825260208201905092915050565b60005b8381101561184e578082015181840152602081019050611833565b60008484015250505050565b6000601f19601f8301169050919050565b600061187682611814565b611880818561181f565b9350611890818560208601611830565b6118998161185a565b840191505092915050565b600060208201905081810360008301526118be818461186b565b905092915050565b6000819050919050565b6118d9816118c6565b81146118e457600080fd5b50565b6000813590506118f6816118d0565b92915050565b6000602082840312156119125761191161174f565b5b6000611920848285016118e7565b91505092915050565b600073ffffffffffffffffffffffffffffffffffffffff82169050919050565b600061195482611929565b9050919050565b61196481611949565b82525050565b600060208201905061197f600083018461195b565b92915050565b61198e81611949565b811461199957600080fd5b50565b6000813590506119ab81611985565b92915050565b600080604083850312156119c8576119c761174f565b5b60006119d68582860161199c565b92505060206119e7858286016118e7565b9150509250929050565b6119fa816118c6565b82525050565b6000602082019050611a1560008301846119f1565b92915050565b600080600060608486031215611a3457611a3361174f565b5b6000611a428682870161199c565b9350506020611a538682870161199c565b9250506040611a64868287016118e7565b9150509250925092565b600060208284031215611a8457611a8361174f565b5b6000611a928482850161199c565b91505092915050565b611aa4816117de565b8114611aaf57600080fd5b50565b600081359050611ac181611a9b565b92915050565b60008060408385031215611ade57611add61174f565b5b6000611aec8582860161199c565b9250506020611afd85828601611ab2565b9150509250929050565b600080fd5b600080fd5b7f4e487b7100000000000000000000000000000000000000000000000000000000600052604160045260246000fd5b611b498261185a565b810181811067ffffffffffffffff82111715611b6857611b67611b11565b5b80604052505050565b6000611b7b611745565b9050611b878282611b40565b919050565b600067ffffffffffffffff821115611ba757611ba6611b11565b5b611bb08261185a565b9050602081019050919050565b82818337600083830152505050565b6000611bdf611bda84611b8c565b611b71565b905082815260208101848484011115611bfb57611bfa611b0c565b5b611c06848285611bbd565b509392505050565b600082601f830112611c2357611c22611b07565b5b8135611c33848260208601611bcc565b91505092915050565b60008060008060808587031215611c5657611c5561174f565b5b6000611c648782880161199c565b9450506020611c758782880161199c565b9350506040611c86878288016118e7565b925050606085013567ffffffffffffffff811115611ca757611ca6611754565b5b611cb387828801611c0e565b91505092959194509250565b60008060408385031215611cd657611cd561174f565b5b6000611ce48582860161199c565b9250506020611cf58582860161199c565b9150509250929050565b7f4e487b7100000000000000000000000000000000000000000000000000000000600052602260045260246000fd5b60006002820490506001821680611d4657607f821691505b602082108103611d5957611d58611cff565b5b50919050565b6000606082019050611d74600083018661195b565b611d8160208301856119f1565b611d8e604083018461195b565b949350505050565b7f4f6e6c7920746865206f776e65722063616e2063616c6c20746869732066756e60008201527f6374696f6e000000000000000000000000000000000000000000000000000000602082015250565b6000611df260258361181f565b9150611dfd82611d96565b604082019050919050565b60006020820190508181036000830152611e2181611de5565b9050919050565b7f4e487b7100000000000000000000000000000000000000000000000000000000600052601160045260246000fd5b6000611e62826118c6565b9150611e6d836118c6565b9250828201905080821115611e8557611e84611e28565b5b92915050565b600081905092915050565b6000611ea182611814565b611eab8185611e8b565b9350611ebb818560208601611830565b80840191505092915050565b6000611ed38285611e96565b9150611edf8284611e96565b91508190509392505050565b600081519050919050565b600082825260208201905092915050565b6000611f1282611eeb565b611f1c8185611ef6565b9350611f2c818560208601611830565b611f358161185a565b840191505092915050565b6000608082019050611f55600083018761195b565b611f62602083018661195b565b611f6f60408301856119f1565b8181036060830152611f818184611f07565b905095945050505050565b600081519050611f9b81611785565b92915050565b600060208284031215611fb757611fb661174f565b5b6000611fc584828501611f8c565b91505092915050565b7f4e487b7100000000000000000000000000000000000000000000000000000000600052601260045260246000fd5b6000604082019050612012600083018561195b565b61201f60208301846119f1565b939250505056fea2646970667358221220e57abc705059dcb7070e1d14a600a4687def64317d74db06a419d7fe977548f864736f6c63430008180033",
  "linkReferences": {},
  "deployedLinkReferences": {}
}