{
  "_format": "hh-sol-artifact-1",
  "contractName": "MERNS",
  "sourceName": "contracts/PortfolioNFT.sol",
  "abi": [
    {
      "inputs": [
        {
          "internalType": "address",
          "name": "initialOwner",
          "type": "address"
        }
      ],
      "stateMutability": "nonpayable",
      "type": "constructor"
    },
    {
      "inputs": [
        {
          "internalType": "address",
          "name": "sender",
          "type": "address"
        },
        {
          "internalType": "uint256",
          "name": "tokenId",
          "type": "uint256"
        },
        {
          "internalType": "address",
          "name": "owner",
          "type": "address"
        }
      ],
      "name": "ERC721IncorrectOwner",
      "type": "error"
    },
    {
      "inputs": [
        {
          "internalType": "address",
          "name": "operator",
          "type": "address"
        },
        {
          "internalType": "uint256",
          "name": "tokenId",
          "type": "uint256"
        }
      ],
      "name": "ERC721InsufficientApproval",
      "type": "error"
    },
    {
      "inputs": [
        {
          "internalType": "address",
          "name": "approver",
          "type": "address"
        }
      ],
      "name": "ERC721InvalidApprover",
      "type": "error"
    },
    {
      "inputs": [
        {
          "internalType": "address",
          "name": "operator",
          "type": "address"
        }
      ],
      "name": "ERC721InvalidOperator",
      "type": "error"
    },
    {
      "inputs": [
        {
          "internalType": "address",
          "name": "owner",
          "type": "address"
        }
      ],
      "name": "ERC721InvalidOwner",
      "type": "error"
    },
    {
      "inputs": [
        {
          "internalType": "address",
          "name": "receiver",
          "type": "address"
        }
      ],
      "name": "ERC721InvalidReceiver",
      "type": "error"
    },
    {
      "inputs": [
        {
          "internalType": "address",
          "name": "sender",
          "type": "address"
        }
      ],
      "name": "ERC721InvalidSender",
      "type": "error"
    },
    {
      "inputs": [
        {
          "internalType": "uint256",
          "name": "tokenId",
          "type": "uint256"
        }
      ],
      "name": "ERC721NonexistentToken",
      "type": "error"
    },
    {
      "inputs": [],
      "name": "EnforcedPause",
      "type": "error"
    },
    {
      "inputs": [],
      "name": "ExpectedPause",
      "type": "error"
    },
    {
      "inputs": [
        {
          "internalType": "address",
          "name": "owner",
          "type": "address"
        }
      ],
      "name": "OwnableInvalidOwner",
      "type": "error"
    },
    {
      "inputs": [
        {
          "internalType": "address",
          "name": "account",
          "type": "address"
        }
      ],
      "name": "OwnableUnauthorizedAccount",
      "type": "error"
    },
    {
      "anonymous": false,
      "inputs": [
        {
          "indexed": true,
          "internalType": "address",
          "name": "owner",
          "type": "address"
        },
        {
          "indexed": true,
          "internalType": "address",
          "name": "approved",
          "type": "address"
        },
        {
          "indexed": true,
          "internalType": "uint256",
          "name": "tokenId",
          "type": "uint256"
        }
      ],
      "name": "Approval",
      "type": "event"
    },
    {
      "anonymous": false,
      "inputs": [
        {
          "indexed": true,
          "internalType": "address",
          "name": "owner",
          "type": "address"
        },
        {
          "indexed": true,
          "internalType": "address",
          "name": "operator",
          "type": "address"
        },
        {
          "indexed": false,
          "internalType": "bool",
          "name": "approved",
          "type": "bool"
        }
      ],
      "name": "ApprovalForAll",
      "type": "event"
    },
    {
      "anonymous": false,
      "inputs": [
        {
          "indexed": false,
          "internalType": "uint256",
          "name": "_fromTokenId",
          "type": "uint256"
        },
        {
          "indexed": false,
          "internalType": "uint256",
          "name": "_toTokenId",
          "type": "uint256"
        }
      ],
      "name": "BatchMetadataUpdate",
      "type": "event"
    },
    {
      "anonymous": false,
      "inputs": [
        {
          "indexed": false,
          "internalType": "uint256",
          "name": "_tokenId",
          "type": "uint256"
        }
      ],
      "name": "MetadataUpdate",
      "type": "event"
    },
    {
      "anonymous": false,
      "inputs": [
        {
          "indexed": true,
          "internalType": "address",
          "name": "previousOwner",
          "type": "address"
        },
        {
          "indexed": true,
          "internalType": "address",
          "name": "newOwner",
          "type": "address"
        }
      ],
      "name": "OwnershipTransferred",
      "type": "event"
    },
    {
      "anonymous": false,
      "inputs": [
        {
          "indexed": false,
          "internalType": "address",
          "name": "account",
          "type": "address"
        }
      ],
      "name": "Paused",
      "type": "event"
    },
    {
      "anonymous": false,
      "inputs": [
        {
          "indexed": true,
          "internalType": "address",
          "name": "from",
          "type": "address"
        },
        {
          "indexed": true,
          "internalType": "address",
          "name": "to",
          "type": "address"
        },
        {
          "indexed": true,
          "internalType": "uint256",
          "name": "tokenId",
          "type": "uint256"
        }
      ],
      "name": "Transfer",
      "type": "event"
    },
    {
      "anonymous": false,
      "inputs": [
        {
          "indexed": false,
          "internalType": "address",
          "name": "account",
          "type": "address"
        }
      ],
      "name": "Unpaused",
      "type": "event"
    },
    {
      "inputs": [
        {
          "internalType": "address",
          "name": "to",
          "type": "address"
        },
        {
          "internalType": "uint256",
          "name": "tokenId",
          "type": "uint256"
        }
      ],
      "name": "approve",
      "outputs": [],
      "stateMutability": "nonpayable",
      "type": "function"
    },
    {
      "inputs": [
        {
          "internalType": "address",
          "name": "owner",
          "type": "address"
        }
      ],
      "name": "balanceOf",
      "outputs": [
        {
          "internalType": "uint256",
          "name": "",
          "type": "uint256"
        }
      ],
      "stateMutability": "view",
      "type": "function"
    },
    {
      "inputs": [
        {
          "internalType": "uint256",
          "name": "tokenId",
          "type": "uint256"
        }
      ],
      "name": "getApproved",
      "outputs": [
        {
          "internalType": "address",
          "name": "",
          "type": "address"
        }
      ],
      "stateMutability": "view",
      "type": "function"
    },
    {
      "inputs": [
        {
          "internalType": "address",
          "name": "owner",
          "type": "address"
        },
        {
          "internalType": "address",
          "name": "operator",
          "type": "address"
        }
      ],
      "name": "isApprovedForAll",
      "outputs": [
        {
          "internalType": "bool",
          "name": "",
          "type": "bool"
        }
      ],
      "stateMutability": "view",
      "type": "function"
    },
    {
      "inputs": [],
      "name": "name",
      "outputs": [
        {
          "internalType": "string",
          "name": "",
          "type": "string"
        }
      ],
      "stateMutability": "view",
      "type": "function"
    },
    {
      "inputs": [],
      "name": "owner",
      "outputs": [
        {
          "internalType": "address",
          "name": "",
          "type": "address"
        }
      ],
      "stateMutability": "view",
      "type": "function"
    },
    {
      "inputs": [
        {
          "internalType": "uint256",
          "name": "tokenId",
          "type": "uint256"
        }
      ],
      "name": "ownerOf",
      "outputs": [
        {
          "internalType": "address",
          "name": "",
          "type": "address"
        }
      ],
      "stateMutability": "view",
      "type": "function"
    },
    {
      "inputs": [],
      "name": "paused",
      "outputs": [
        {
          "internalType": "bool",
          "name": "",
          "type": "bool"
        }
      ],
      "stateMutability": "view",
      "type": "function"
    },
    {
      "inputs": [],
      "name": "renounceOwnership",
      "outputs": [],
      "stateMutability": "nonpayable",
      "type": "function"
    },
    {
      "inputs": [
        {
          "internalType": "address",
          "name": "_receiver",
          "type": "address"
        },
        {
          "internalType": "string",
          "name": "_tokenURI",
          "type": "string"
        }
      ],
      "name": "safeMint",
      "outputs": [],
      "stateMutability": "nonpayable",
      "type": "function"
    },
    {
      "inputs": [
        {
          "internalType": "address",
          "name": "from",
          "type": "address"
        },
        {
          "internalType": "address",
          "name": "to",
          "type": "address"
        },
        {
          "internalType": "uint256",
          "name": "tokenId",
          "type": "uint256"
        }
      ],
      "name": "safeTransferFrom",
      "outputs": [],
      "stateMutability": "nonpayable",
      "type": "function"
    },
    {
      "inputs": [
        {
          "internalType": "address",
          "name": "from",
          "type": "address"
        },
        {
          "internalType": "address",
          "name": "to",
          "type": "address"
        },
        {
          "internalType": "uint256",
          "name": "tokenId",
          "type": "uint256"
        },
        {
          "internalType": "bytes",
          "name": "data",
          "type": "bytes"
        }
      ],
      "name": "safeTransferFrom",
      "outputs": [],
      "stateMutability": "nonpayable",
      "type": "function"
    },
    {
      "inputs": [
        {
          "internalType": "address",
          "name": "operator",
          "type": "address"
        },
        {
          "internalType": "bool",
          "name": "approved",
          "type": "bool"
        }
      ],
      "name": "setApprovalForAll",
      "outputs": [],
      "stateMutability": "nonpayable",
      "type": "function"
    },
    {
      "inputs": [
        {
          "internalType": "bytes4",
          "name": "interfaceId",
          "type": "bytes4"
        }
      ],
      "name": "supportsInterface",
      "outputs": [
        {
          "internalType": "bool",
          "name": "",
          "type": "bool"
        }
      ],
      "stateMutability": "view",
      "type": "function"
    },
    {
      "inputs": [],
      "name": "symbol",
      "outputs": [
        {
          "internalType": "string",
          "name": "",
          "type": "string"
        }
      ],
      "stateMutability": "view",
      "type": "function"
    },
    {
      "inputs": [
        {
          "internalType": "uint256",
          "name": "tokenId",
          "type": "uint256"
        }
      ],
      "name": "tokenURI",
      "outputs": [
        {
          "internalType": "string",
          "name": "",
          "type": "string"
        }
      ],
      "stateMutability": "view",
      "type": "function"
    },
    {
      "inputs": [],
      "name": "totalSupply",
      "outputs": [
        {
          "internalType": "uint256",
          "name": "",
          "type": "uint256"
        }
      ],
      "stateMutability": "view",
      "type": "function"
    },
    {
      "inputs": [
        {
          "internalType": "address",
          "name": "from",
          "type": "address"
        },
        {
          "internalType": "address",
          "name": "to",
          "type": "address"
        },
        {
          "internalType": "uint256",
          "name": "tokenId",
          "type": "uint256"
        }
      ],
      "name": "transferFrom",
      "outputs": [],
      "stateMutability": "nonpayable",
      "type": "function"
    },
    {
      "inputs": [
        {
          "internalType": "address",
          "name": "newOwner",
          "type": "address"
        }
      ],
      "name": "transferOwnership",
      "outputs": [],
      "stateMutability": "nonpayable",
      "type": "function"
    }
  ],
  "bytecode": "0x60806040523480156200001157600080fd5b5060405162002d5738038062002d578339818101604052810190620000379190620002a3565b806040518060400160405280601581526020017f536562692773204d45524e53204d6f6e737465727300000000000000000000008152506040518060400160405280600581526020017f4d45524e530000000000000000000000000000000000000000000000000000008152508160009081620000b591906200054f565b508060019081620000c791906200054f565b5050506000600660006101000a81548160ff021916908315150217905550600073ffffffffffffffffffffffffffffffffffffffff168173ffffffffffffffffffffffffffffffffffffffff16036200015a5760006040517f1e4fbdf700000000000000000000000000000000000000000000000000000000815260040162000151919062000647565b60405180910390fd5b6200016b816200017360201b60201c565b505062000664565b6000600660019054906101000a900473ffffffffffffffffffffffffffffffffffffffff16905081600660016101000a81548173ffffffffffffffffffffffffffffffffffffffff021916908373ffffffffffffffffffffffffffffffffffffffff1602179055508173ffffffffffffffffffffffffffffffffffffffff168173ffffffffffffffffffffffffffffffffffffffff167f8be0079c531659141344cd1fd0a4f28419497f9722a3daafe3b4186f6b6457e060405160405180910390a35050565b600080fd5b600073ffffffffffffffffffffffffffffffffffffffff82169050919050565b60006200026b826200023e565b9050919050565b6200027d816200025e565b81146200028957600080fd5b50565b6000815190506200029d8162000272565b92915050565b600060208284031215620002bc57620002bb62000239565b5b6000620002cc848285016200028c565b91505092915050565b600081519050919050565b7f4e487b7100000000000000000000000000000000000000000000000000000000600052604160045260246000fd5b7f4e487b7100000000000000000000000000000000000000000000000000000000600052602260045260246000fd5b600060028204905060018216806200035757607f821691505b6020821081036200036d576200036c6200030f565b5b50919050565b60008190508160005260206000209050919050565b60006020601f8301049050919050565b600082821b905092915050565b600060088302620003d77fffffffffffffffffffffffffffffffffffffffffffffffffffffffffffffffff8262000398565b620003e3868362000398565b95508019841693508086168417925050509392505050565b6000819050919050565b6000819050919050565b6000620004306200042a6200042484620003fb565b62000405565b620003fb565b9050919050565b6000819050919050565b6200044c836200040f565b620004646200045b8262000437565b848454620003a5565b825550505050565b600090565b6200047b6200046c565b6200048881848462000441565b505050565b5b81811015620004b057620004a460008262000471565b6001810190506200048e565b5050565b601f821115620004ff57620004c98162000373565b620004d48462000388565b81016020851015620004e4578190505b620004fc620004f38562000388565b8301826200048d565b50505b505050565b600082821c905092915050565b6000620005246000198460080262000504565b1980831691505092915050565b60006200053f838362000511565b9150826002028217905092915050565b6200055a82620002d5565b67ffffffffffffffff811115620005765762000575620002e0565b5b6200058282546200033e565b6200058f828285620004b4565b600060209050601f831160018114620005c75760008415620005b2578287015190505b620005be858262000531565b8655506200062e565b601f198416620005d78662000373565b60005b828110156200060157848901518255600182019150602085019450602081019050620005da565b868310156200062157848901516200061d601f89168262000511565b8355505b6001600288020188555050505b505050505050565b62000641816200025e565b82525050565b60006020820190506200065e600083018462000636565b92915050565b6126e380620006746000396000f3fe608060405234801561001057600080fd5b50600436106101215760003560e01c806370a08231116100ad578063b88d4fde11610071578063b88d4fde146102f6578063c87b56dd14610312578063d204c45e14610342578063e985e9c51461035e578063f2fde38b1461038e57610121565b806370a0823114610264578063715018a6146102945780638da5cb5b1461029e57806395d89b41146102bc578063a22cb465146102da57610121565b806318160ddd116100f457806318160ddd146101c057806323b872dd146101de57806342842e0e146101fa5780635c975abb146102165780636352211e1461023457610121565b806301ffc9a71461012657806306fdde0314610156578063081812fc14610174578063095ea7b3146101a4575b600080fd5b610140600480360381019061013b9190611b4f565b6103aa565b60405161014d9190611b97565b60405180910390f35b61015e6103bc565b60405161016b9190611c42565b60405180910390f35b61018e60048036038101906101899190611c9a565b61044e565b60405161019b9190611d08565b60405180910390f35b6101be60048036038101906101b99190611d4f565b61046a565b005b6101c8610480565b6040516101d59190611d9e565b60405180910390f35b6101f860048036038101906101f39190611db9565b61048a565b005b610214600480360381019061020f9190611db9565b61058c565b005b61021e6105ac565b60405161022b9190611b97565b60405180910390f35b61024e60048036038101906102499190611c9a565b6105c3565b60405161025b9190611d08565b60405180910390f35b61027e60048036038101906102799190611e0c565b6105d5565b60405161028b9190611d9e565b60405180910390f35b61029c61068f565b005b6102a66106a3565b6040516102b39190611d08565b60405180910390f35b6102c46106cd565b6040516102d19190611c42565b60405180910390f35b6102f460048036038101906102ef9190611e65565b61075f565b005b610310600480360381019061030b9190611fda565b610775565b005b61032c60048036038101906103279190611c9a565b610792565b6040516103399190611c42565b60405180910390f35b61035c600480360381019061035791906120fe565b6107a4565b005b6103786004803603810190610373919061215a565b6107e6565b6040516103859190611b97565b60405180910390f35b6103a860048036038101906103a39190611e0c565b61087a565b005b60006103b582610900565b9050919050565b6060600080546103cb906121c9565b80601f01602080910402602001604051908101604052809291908181526020018280546103f7906121c9565b80156104445780601f1061041957610100808354040283529160200191610444565b820191906000526020600020905b81548152906001019060200180831161042757829003601f168201915b5050505050905090565b600061045982610961565b50610463826109e9565b9050919050565b61047c8282610477610a26565b610a2e565b5050565b6000600854905090565b600073ffffffffffffffffffffffffffffffffffffffff168273ffffffffffffffffffffffffffffffffffffffff16036104fc5760006040517f64a0ae920000000000000000000000000000000000000000000000000000000081526004016104f39190611d08565b60405180910390fd5b6000610510838361050b610a26565b610a40565b90508373ffffffffffffffffffffffffffffffffffffffff168173ffffffffffffffffffffffffffffffffffffffff1614610586578382826040517f64283d7b00000000000000000000000000000000000000000000000000000000815260040161057d939291906121fa565b60405180910390fd5b50505050565b6105a783838360405180602001604052806000815250610775565b505050565b6000600660009054906101000a900460ff16905090565b60006105ce82610961565b9050919050565b60008073ffffffffffffffffffffffffffffffffffffffff168273ffffffffffffffffffffffffffffffffffffffff16036106485760006040517f89c62b6400000000000000000000000000000000000000000000000000000000815260040161063f9190611d08565b60405180910390fd5b600360008373ffffffffffffffffffffffffffffffffffffffff1673ffffffffffffffffffffffffffffffffffffffff168152602001908152602001600020549050919050565b610697610c5a565b6106a16000610ce1565b565b6000600660019054906101000a900473ffffffffffffffffffffffffffffffffffffffff16905090565b6060600180546106dc906121c9565b80601f0160208091040260200160405190810160405280929190818152602001828054610708906121c9565b80156107555780601f1061072a57610100808354040283529160200191610755565b820191906000526020600020905b81548152906001019060200180831161073857829003601f168201915b5050505050905090565b61077161076a610a26565b8383610da7565b5050565b61078084848461048a565b61078c84848484610f16565b50505050565b606061079d826110cd565b9050919050565b6107ac610c5a565b600060085490506107bd83826111e0565b6107c781836111fe565b6001600860008282546107da9190612260565b92505081905550505050565b6000600560008473ffffffffffffffffffffffffffffffffffffffff1673ffffffffffffffffffffffffffffffffffffffff16815260200190815260200160002060008373ffffffffffffffffffffffffffffffffffffffff1673ffffffffffffffffffffffffffffffffffffffff16815260200190815260200160002060009054906101000a900460ff16905092915050565b610882610c5a565b600073ffffffffffffffffffffffffffffffffffffffff168173ffffffffffffffffffffffffffffffffffffffff16036108f45760006040517f1e4fbdf70000000000000000000000000000000000000000000000000000000081526004016108eb9190611d08565b60405180910390fd5b6108fd81610ce1565b50565b6000634906490660e01b7bffffffffffffffffffffffffffffffffffffffffffffffffffffffff1916827bffffffffffffffffffffffffffffffffffffffffffffffffffffffff1916148061095a57506109598261125a565b5b9050919050565b60008061096d8361133c565b9050600073ffffffffffffffffffffffffffffffffffffffff168173ffffffffffffffffffffffffffffffffffffffff16036109e057826040517f7e2732890000000000000000000000000000000000000000000000000000000081526004016109d79190611d9e565b60405180910390fd5b80915050919050565b60006004600083815260200190815260200160002060009054906101000a900473ffffffffffffffffffffffffffffffffffffffff169050919050565b600033905090565b610a3b8383836001611379565b505050565b600080610a4c8461133c565b9050600073ffffffffffffffffffffffffffffffffffffffff168373ffffffffffffffffffffffffffffffffffffffff1614610a8e57610a8d81848661153e565b5b600073ffffffffffffffffffffffffffffffffffffffff168173ffffffffffffffffffffffffffffffffffffffff1614610b1f57610ad0600085600080611379565b6001600360008373ffffffffffffffffffffffffffffffffffffffff1673ffffffffffffffffffffffffffffffffffffffff168152602001908152602001600020600082825403925050819055505b600073ffffffffffffffffffffffffffffffffffffffff168573ffffffffffffffffffffffffffffffffffffffff1614610ba2576001600360008773ffffffffffffffffffffffffffffffffffffffff1673ffffffffffffffffffffffffffffffffffffffff168152602001908152602001600020600082825401925050819055505b846002600086815260200190815260200160002060006101000a81548173ffffffffffffffffffffffffffffffffffffffff021916908373ffffffffffffffffffffffffffffffffffffffff160217905550838573ffffffffffffffffffffffffffffffffffffffff168273ffffffffffffffffffffffffffffffffffffffff167fddf252ad1be2c89b69c2b068fc378daa952ba7f163c4a11628f55a4df523b3ef60405160405180910390a4809150509392505050565b610c62610a26565b73ffffffffffffffffffffffffffffffffffffffff16610c806106a3565b73ffffffffffffffffffffffffffffffffffffffff1614610cdf57610ca3610a26565b6040517f118cdaa7000000000000000000000000000000000000000000000000000000008152600401610cd69190611d08565b60405180910390fd5b565b6000600660019054906101000a900473ffffffffffffffffffffffffffffffffffffffff16905081600660016101000a81548173ffffffffffffffffffffffffffffffffffffffff021916908373ffffffffffffffffffffffffffffffffffffffff1602179055508173ffffffffffffffffffffffffffffffffffffffff168173ffffffffffffffffffffffffffffffffffffffff167f8be0079c531659141344cd1fd0a4f28419497f9722a3daafe3b4186f6b6457e060405160405180910390a35050565b600073ffffffffffffffffffffffffffffffffffffffff168273ffffffffffffffffffffffffffffffffffffffff1603610e1857816040517f5b08ba18000000000000000000000000000000000000000000000000000000008152600401610e0f9190611d08565b60405180910390fd5b80600560008573ffffffffffffffffffffffffffffffffffffffff1673ffffffffffffffffffffffffffffffffffffffff16815260200190815260200160002060008473ffffffffffffffffffffffffffffffffffffffff1673ffffffffffffffffffffffffffffffffffffffff16815260200190815260200160002060006101000a81548160ff0219169083151502179055508173ffffffffffffffffffffffffffffffffffffffff168373ffffffffffffffffffffffffffffffffffffffff167f17307eab39ab6107e8899845ad3d59bd9653f200f220920489ca2b5937696c3183604051610f099190611b97565b60405180910390a3505050565b60008373ffffffffffffffffffffffffffffffffffffffff163b11156110c7578273ffffffffffffffffffffffffffffffffffffffff1663150b7a02610f5a610a26565b8685856040518563ffffffff1660e01b8152600401610f7c94939291906122e9565b6020604051808303816000875af1925050508015610fb857506040513d601f19601f82011682018060405250810190610fb5919061234a565b60015b61103c573d8060008114610fe8576040519150601f19603f3d011682016040523d82523d6000602084013e610fed565b606091505b50600081510361103457836040517f64a0ae9200000000000000000000000000000000000000000000000000000000815260040161102b9190611d08565b60405180910390fd5b805181602001fd5b63150b7a0260e01b7bffffffffffffffffffffffffffffffffffffffffffffffffffffffff1916817bffffffffffffffffffffffffffffffffffffffffffffffffffffffff1916146110c557836040517f64a0ae920000000000000000000000000000000000000000000000000000000081526004016110bc9190611d08565b60405180910390fd5b505b50505050565b60606110d882610961565b5060006007600084815260200190815260200160002080546110f9906121c9565b80601f0160208091040260200160405190810160405280929190818152602001828054611125906121c9565b80156111725780601f1061114757610100808354040283529160200191611172565b820191906000526020600020905b81548152906001019060200180831161115557829003601f168201915b505050505090506000611183611602565b905060008151036111985781925050506111db565b6000825111156111cd5780826040516020016111b59291906123b3565b604051602081830303815290604052925050506111db565b6111d684611619565b925050505b919050565b6111fa828260405180602001604052806000815250611682565b5050565b8060076000848152602001908152602001600020908161121e9190612583565b507ff8e1a15aba9398e019f0b49df1a4fde98ee17ae345cb5f6b5e2c27f5033e8ce78260405161124e9190611d9e565b60405180910390a15050565b60007f80ac58cd000000000000000000000000000000000000000000000000000000007bffffffffffffffffffffffffffffffffffffffffffffffffffffffff1916827bffffffffffffffffffffffffffffffffffffffffffffffffffffffff1916148061132557507f5b5e139f000000000000000000000000000000000000000000000000000000007bffffffffffffffffffffffffffffffffffffffffffffffffffffffff1916827bffffffffffffffffffffffffffffffffffffffffffffffffffffffff1916145b8061133557506113348261169e565b5b9050919050565b60006002600083815260200190815260200160002060009054906101000a900473ffffffffffffffffffffffffffffffffffffffff169050919050565b80806113b25750600073ffffffffffffffffffffffffffffffffffffffff168273ffffffffffffffffffffffffffffffffffffffff1614155b156114e65760006113c284610961565b9050600073ffffffffffffffffffffffffffffffffffffffff168373ffffffffffffffffffffffffffffffffffffffff161415801561142d57508273ffffffffffffffffffffffffffffffffffffffff168173ffffffffffffffffffffffffffffffffffffffff1614155b8015611440575061143e81846107e6565b155b1561148257826040517fa9fbf51f0000000000000000000000000000000000000000000000000000000081526004016114799190611d08565b60405180910390fd5b81156114e457838573ffffffffffffffffffffffffffffffffffffffff168273ffffffffffffffffffffffffffffffffffffffff167f8c5be1e5ebec7d5bd14f71427d1e84f3dd0314c0f7b2291e5b200ac8c7c3b92560405160405180910390a45b505b836004600085815260200190815260200160002060006101000a81548173ffffffffffffffffffffffffffffffffffffffff021916908373ffffffffffffffffffffffffffffffffffffffff16021790555050505050565b611549838383611708565b6115fd57600073ffffffffffffffffffffffffffffffffffffffff168373ffffffffffffffffffffffffffffffffffffffff16036115be57806040517f7e2732890000000000000000000000000000000000000000000000000000000081526004016115b59190611d9e565b60405180910390fd5b81816040517f177e802f0000000000000000000000000000000000000000000000000000000081526004016115f4929190612655565b60405180910390fd5b505050565b606060405180602001604052806000815250905090565b606061162482610961565b50600061162f611602565b9050600081511161164f576040518060200160405280600081525061167a565b80611659846117c9565b60405160200161166a9291906123b3565b6040516020818303038152906040525b915050919050565b61168c8383611897565b6116996000848484610f16565b505050565b60007f01ffc9a7000000000000000000000000000000000000000000000000000000007bffffffffffffffffffffffffffffffffffffffffffffffffffffffff1916827bffffffffffffffffffffffffffffffffffffffffffffffffffffffff1916149050919050565b60008073ffffffffffffffffffffffffffffffffffffffff168373ffffffffffffffffffffffffffffffffffffffff16141580156117c057508273ffffffffffffffffffffffffffffffffffffffff168473ffffffffffffffffffffffffffffffffffffffff161480611781575061178084846107e6565b5b806117bf57508273ffffffffffffffffffffffffffffffffffffffff166117a7836109e9565b73ffffffffffffffffffffffffffffffffffffffff16145b5b90509392505050565b6060600060016117d884611990565b01905060008167ffffffffffffffff8111156117f7576117f6611eaf565b5b6040519080825280601f01601f1916602001820160405280156118295781602001600182028036833780820191505090505b509050600082602001820190505b60011561188c578080600190039150507f3031323334353637383961626364656600000000000000000000000000000000600a86061a8153600a85816118805761187f61267e565b5b04945060008503611837575b819350505050919050565b600073ffffffffffffffffffffffffffffffffffffffff168273ffffffffffffffffffffffffffffffffffffffff16036119095760006040517f64a0ae920000000000000000000000000000000000000000000000000000000081526004016119009190611d08565b60405180910390fd5b600061191783836000610a40565b9050600073ffffffffffffffffffffffffffffffffffffffff168173ffffffffffffffffffffffffffffffffffffffff161461198b5760006040517f73c6ac6e0000000000000000000000000000000000000000000000000000000081526004016119829190611d08565b60405180910390fd5b505050565b600080600090507a184f03e93ff9f4daa797ed6e38ed64bf6a1f01000000000000000083106119ee577a184f03e93ff9f4daa797ed6e38ed64bf6a1f01000000000000000083816119e4576119e361267e565b5b0492506040810190505b6d04ee2d6d415b85acef81000000008310611a2b576d04ee2d6d415b85acef81000000008381611a2157611a2061267e565b5b0492506020810190505b662386f26fc100008310611a5a57662386f26fc100008381611a5057611a4f61267e565b5b0492506010810190505b6305f5e1008310611a83576305f5e1008381611a7957611a7861267e565b5b0492506008810190505b6127108310611aa8576127108381611a9e57611a9d61267e565b5b0492506004810190505b60648310611acb5760648381611ac157611ac061267e565b5b0492506002810190505b600a8310611ada576001810190505b80915050919050565b6000604051905090565b600080fd5b600080fd5b60007fffffffff0000000000000000000000000000000000000000000000000000000082169050919050565b611b2c81611af7565b8114611b3757600080fd5b50565b600081359050611b4981611b23565b92915050565b600060208284031215611b6557611b64611aed565b5b6000611b7384828501611b3a565b91505092915050565b60008115159050919050565b611b9181611b7c565b82525050565b6000602082019050611bac6000830184611b88565b92915050565b600081519050919050565b600082825260208201905092915050565b60005b83811015611bec578082015181840152602081019050611bd1565b60008484015250505050565b6000601f19601f8301169050919050565b6000611c1482611bb2565b611c1e8185611bbd565b9350611c2e818560208601611bce565b611c3781611bf8565b840191505092915050565b60006020820190508181036000830152611c5c8184611c09565b905092915050565b6000819050919050565b611c7781611c64565b8114611c8257600080fd5b50565b600081359050611c9481611c6e565b92915050565b600060208284031215611cb057611caf611aed565b5b6000611cbe84828501611c85565b91505092915050565b600073ffffffffffffffffffffffffffffffffffffffff82169050919050565b6000611cf282611cc7565b9050919050565b611d0281611ce7565b82525050565b6000602082019050611d1d6000830184611cf9565b92915050565b611d2c81611ce7565b8114611d3757600080fd5b50565b600081359050611d4981611d23565b92915050565b60008060408385031215611d6657611d65611aed565b5b6000611d7485828601611d3a565b9250506020611d8585828601611c85565b9150509250929050565b611d9881611c64565b82525050565b6000602082019050611db36000830184611d8f565b92915050565b600080600060608486031215611dd257611dd1611aed565b5b6000611de086828701611d3a565b9350506020611df186828701611d3a565b9250506040611e0286828701611c85565b9150509250925092565b600060208284031215611e2257611e21611aed565b5b6000611e3084828501611d3a565b91505092915050565b611e4281611b7c565b8114611e4d57600080fd5b50565b600081359050611e5f81611e39565b92915050565b60008060408385031215611e7c57611e7b611aed565b5b6000611e8a85828601611d3a565b9250506020611e9b85828601611e50565b9150509250929050565b600080fd5b600080fd5b7f4e487b7100000000000000000000000000000000000000000000000000000000600052604160045260246000fd5b611ee782611bf8565b810181811067ffffffffffffffff82111715611f0657611f05611eaf565b5b80604052505050565b6000611f19611ae3565b9050611f258282611ede565b919050565b600067ffffffffffffffff821115611f4557611f44611eaf565b5b611f4e82611bf8565b9050602081019050919050565b82818337600083830152505050565b6000611f7d611f7884611f2a565b611f0f565b905082815260208101848484011115611f9957611f98611eaa565b5b611fa4848285611f5b565b509392505050565b600082601f830112611fc157611fc0611ea5565b5b8135611fd1848260208601611f6a565b91505092915050565b60008060008060808587031215611ff457611ff3611aed565b5b600061200287828801611d3a565b945050602061201387828801611d3a565b935050604061202487828801611c85565b925050606085013567ffffffffffffffff81111561204557612044611af2565b5b61205187828801611fac565b91505092959194509250565b600067ffffffffffffffff82111561207857612077611eaf565b5b61208182611bf8565b9050602081019050919050565b60006120a161209c8461205d565b611f0f565b9050828152602081018484840111156120bd576120bc611eaa565b5b6120c8848285611f5b565b509392505050565b600082601f8301126120e5576120e4611ea5565b5b81356120f584826020860161208e565b91505092915050565b6000806040838503121561211557612114611aed565b5b600061212385828601611d3a565b925050602083013567ffffffffffffffff81111561214457612143611af2565b5b612150858286016120d0565b9150509250929050565b6000806040838503121561217157612170611aed565b5b600061217f85828601611d3a565b925050602061219085828601611d3a565b9150509250929050565b7f4e487b7100000000000000000000000000000000000000000000000000000000600052602260045260246000fd5b600060028204905060018216806121e157607f821691505b6020821081036121f4576121f361219a565b5b50919050565b600060608201905061220f6000830186611cf9565b61221c6020830185611d8f565b6122296040830184611cf9565b949350505050565b7f4e487b7100000000000000000000000000000000000000000000000000000000600052601160045260246000fd5b600061226b82611c64565b915061227683611c64565b925082820190508082111561228e5761228d612231565b5b92915050565b600081519050919050565b600082825260208201905092915050565b60006122bb82612294565b6122c5818561229f565b93506122d5818560208601611bce565b6122de81611bf8565b840191505092915050565b60006080820190506122fe6000830187611cf9565b61230b6020830186611cf9565b6123186040830185611d8f565b818103606083015261232a81846122b0565b905095945050505050565b60008151905061234481611b23565b92915050565b6000602082840312156123605761235f611aed565b5b600061236e84828501612335565b91505092915050565b600081905092915050565b600061238d82611bb2565b6123978185612377565b93506123a7818560208601611bce565b80840191505092915050565b60006123bf8285612382565b91506123cb8284612382565b91508190509392505050565b60008190508160005260206000209050919050565b60006020601f8301049050919050565b600082821b905092915050565b6000600883026124397fffffffffffffffffffffffffffffffffffffffffffffffffffffffffffffffff826123fc565b61244386836123fc565b95508019841693508086168417925050509392505050565b6000819050919050565b600061248061247b61247684611c64565b61245b565b611c64565b9050919050565b6000819050919050565b61249a83612465565b6124ae6124a682612487565b848454612409565b825550505050565b600090565b6124c36124b6565b6124ce818484612491565b505050565b5b818110156124f2576124e76000826124bb565b6001810190506124d4565b5050565b601f82111561253757612508816123d7565b612511846123ec565b81016020851015612520578190505b61253461252c856123ec565b8301826124d3565b50505b505050565b600082821c905092915050565b600061255a6000198460080261253c565b1980831691505092915050565b60006125738383612549565b9150826002028217905092915050565b61258c82611bb2565b67ffffffffffffffff8111156125a5576125a4611eaf565b5b6125af82546121c9565b6125ba8282856124f6565b600060209050601f8311600181146125ed57600084156125db578287015190505b6125e58582612567565b86555061264d565b601f1984166125fb866123d7565b60005b82811015612623578489015182556001820191506020850194506020810190506125fe565b86831015612640578489015161263c601f891682612549565b8355505b6001600288020188555050505b505050505050565b600060408201905061266a6000830185611cf9565b6126776020830184611d8f565b9392505050565b7f4e487b7100000000000000000000000000000000000000000000000000000000600052601260045260246000fdfea2646970667358221220d8482b6379a0611d9fef2926572166b3f6128ca4cc483041c2cf8a7a3a36cf2f64736f6c63430008180033",
  "linkReferences": {},
  "deployedLinkReferences": {}
}